:020000040000fa
:080000001011040000000000d3
:020000040000fa
:102220004fbe20000eff27000e01880000000000b6
:102230000c00070040f12200010020000f00070001
:10224000000020000000e000020032000000020058
:1022500000000000d62f0200000000000040da005d
:102260000000fe00000620000000e0000200320036
:10227000002020009001880000000600a1028800d4
:10228000800078000000eb001a003700e280400078
:1022900054a0b4009101ba00e280400054a0b40000
:1022a0009102ba00e280400054a0b4000002eb00aa
:1022b000472bde00f507b200a6018800602ce10084
:1022c00008003a000049eb000201e8000200390072
:1022d0003420ec0002f0a0008301e900f9ff3e0089
:1022e000040037006128e100010032000082eb00a9
:1022f000040007001101ba000200e000e3ff3a0009
:102300000000060004d0a300e20f49001c003900c1
:10231000810278003549ba000201e8000200390064
:102320003420ec0002f0a0008301e9000f0032002d
:102330002549ba000201e800020039003420ec000f
:1023400002f0a0008301e900080032000400e00070
:102350000600320015c9ba000201e8000200390087
:102360003420ec0002f0a0008301e9008180e80045
:1023700054a0b4000300e000e2ff3a0000000600b1
:102380009102ba00055978008301e900f7ff320095
:10239000c82ade00055978008301e900f3ff320006
:1023a0000400e000f1ff320011d9ba00eeff37005f
:1023b000482a040000000000042a04000000000075
:1023c000702a0400000000006a1c040000000000e5
:1023d000b81c0400000000008c1c04000000000079
:1023e000a21d040000000000f4ff2f00bd00370014
:1023f00014002000bb003700889fbe008a9fbe00eb
:102400008c1f7800d2000700d900330003866c00cf
:102410006450e1002e0032006420e10033003200fd
:102420006150e1002f0032006120e10031003200f4
:1024300085855500eb07b000090020000804200046
:10244000050037000804440089844c000a0031006c
:102450000603430087834b000001530081815b002a
:10246000f8ff33000203be000800a0000804440087
:1024700089844c00f6ff3900c639dd008301730002
:1024800001003200130020008904d1000884d30029
:102490000998a300050032000800a7000300a0006f
:1024a0008904d1000884d3008b05e8008904d10099
:1024b0000884d3000001eb000281d200bc000700b9
:1024c00001f0a1000cf0a70001f0a000b10037005e
:1024d0006420e100b30032000801be000200be002b
:1024e000f7ff37006120e100ae0032006000b80065
:1024f000f3ff37000000200001f82700f0ff37004d
:1025000003f0a200889fbe008a9fbe008c1f780047
:102510008f000700960033006450e1004f00320046
:102520006420e1005200320003826c0007003b008f
:102530000905d0000306d000820f54000c065d0090
:102540000200390002003200890178000306780099
:102550008582550004003d000003fd008103fd005d
:102560008502ea008b854200840f720002003b0066
:1025700060001000e08018006011b8000005eb005a
:102580007a28e1000a00390006007800c75ddd0006
:10259000f707b200878075002d0037008281710037
:1025a0000a017800610560008180d1000080d300bd
:1025b0008502e900f9ff3b000604400087844800db
:1025c00002003b0060041400e0841c000988a300a2
:1025d000070032008a81710082817100610164000c
:1025e0008904d1000884d3008b05e8001700370068
:1025f0000978a30013003a000b00e0001300340038
:102600008b05e9000804440089844c000a447400e6
:102610000978a3000d003a000b00e0000700340029
:102620008b05e9000804440089844c0001003a004d
:102630000b0020000978a300f7ff32000001eb0037
:1026400002003700828171000a01780058000700fb
:102650000cf0a70001f0a0004e0037006420e1005c
:1026600002003a00838f6c004e0033000801be0068
:102670000200be00470037000001be0072000700e4
:102680000470a70003f0a10003f8a30013003a00b0
:102690006509b10010003200090035006928e10029
:1026a0000200350001002800000005000000400085
:1026b000818048008502e900fcff3a000000060026
:1026c000f88f4200050035008100d1000080d30062
:1026d0008502e800fcff3a00000006008000eb00e5
:1026e00000000500889fbe008a9fbe00841f7800fe
:1026f000170007004f00780011003300f0ff2f0093
:10270000838f6c0006003b00040565000a00a700eb
:102710000800370009f0a60010002000080037006c
:10272000820f5400838f5c000300390010002000ea
:1027300001003e000000200009f0a7000000ea00b0
:102740004f05be004f04be000000e0000000060080
:102750000004be003c0007000003be000405be00ec
:102760000200be0038000700844f7500000006001c
:102770000200be006450e100050036006420e10064
:10278000020036000968a30001003a000800be00fc
:102790000160a0004f0678004f05be004f04be0048
:1027a00000000600f0ff2f00f1ff2700f9ff3700bf
:1027b00081002000618055000b003d000b002000cf
:1027c00061fe2f000100e1001d00340082817100d4
:1027d000610164008904d1000884d3000000e8008e
:1027e000faff3a00710020006100640003007000ed
:1027f000020060000900320061044400e0844c00e3
:102800000988a500050032008b05e8006808e10092
:1028100002003a008904d1000884d300f20f20009e
:102820000258e10005003d00c75ddd00f907b20078
:102830008980750008007800000006000bf827006a
:102840008b00780000000500c70ade00f107b20027
:10285000f50fb20008003200e1cf42000200320062
:102860000170a00024000500810f700001003200fb
:102870000408050044000500810f700002003a00c2
:10288000140005008502e9000000400081c04800f6
:10289000fcff3b000170a00024000500881f7800a9
:1028a000000478005001be004000be00040040005b
:1028b000858048000601490087814900009cbe00d0
:1028c0000294be000400e1000588e1000690e100ea
:1028d0000798e10002003100680044001008e80099
:1028e0004f04780000000600f4874700889fbe0070
:1028f0008a9fbe008c9fbe008e1f78000205be001e
:102900000004be00d4b79f00e5b79f00f6b79f0054
:1029100087bf9f000000eb00c0b79f00b0b79f00cb
:10292000a0b79f0090b79f0080b79f000d042000c4
:10293000bfb097004fb09700000140000000e000da
:102940000f003d004f08de0000007100c0b79f007f
:102950009e00070001003d0012002000a1000700ba
:1029600001003d0012002000a6000700b100070092
:10297000b60007000f004000c8ff07002200370024
:102980004f08de0000067100ccb79f008f000700e3
:1029900001003d00120020009200070001003d00f0
:1029a0001200200097000700a20007000fb2970056
:1029b0009fb297002fb39700bfb39700a9000700fd
:1029c0000000520081805a0002015b0083815b009d
:1029d00080b79f0091b79f00a2b79f00b3b79f0039
:1029e0000007eb009f0007000020e10001a8e100c4
:1029f00002b0e10003b8e100010031001e00200038
:102a00000e005600c0b79f004fb297000400e000d0
:102a10000700350010002000010020006011b80000
:102a200008047000898470000a0571008b857100ac
:102a30008d06e900beff3a000400e00003003d00ff
:102a4000820007000f00400094ff07004fa8970086
:102a50000000e00004003a000fb497009fb4970014
:102a60002fb59700bfb59700940007004f07780077
:102a70004f06be004f05be004f04be004f01b1001f
:102a800000000600881f780018002000881f7800ca
:102a900095ff07008f87e9004f04780000000600cb
:102aa000801feb0090ff07008f87e9000000060001
:102ab000889fbe008a9fbe008c1f78006e000700b2
:102ac00007003d0073000700e00f5b00e08f5b0034
:102ad00007003d00320007000006eb00040037004d
:102ae0003400070002003d002a0007001c002000ff
:102af00072000700e3ff07000203be000002be00f1
:102b00000c00e00001003200220007000400be00bb
:102b10000601be004f0678004f05be004f04be0000
:102b200000000600889fbe008a9fbe008c1f7800b0
:102b30005100070005003d0056000700e00f5b0054
:102b4000e08f5b0006003d0004003700190007001d
:102b500003003d006000b8006011b80010000700dd
:102b600056000700ceff07000203be000002be00b1
:102b70000c00e00001003200060007000400be0067
:102b80000601be004f0678004f05be004f04be0090
:102b9000000006006000b8006011b80000003700b7
:102ba00004025000858258000603590087835900ab
:102bb000000006000006eb00e00f5200e08f5a0014
:102bc000e00f5b00e08f5b0000000600018040002a
:102bd00090b79f000001eb008fb097000100e0006c
:102be000000006000200700090b79f0001804000c6
:102bf00080b79f000001eb00ffa897000100e000f4
:102c0000000006000200700080b79f0001804000b5
:102c10006faa9700cf20de0001007000f0af9f0088
:102c200004024200250007004f18de000002720077
:102c300000000600e4af9f000804440089844c00b3
:102c40000a054d008b854d00000006003fb297003d
:102c5000cfb297005fb39700efb3970000fe2f004d
:102c6000000006003fb09700cfb097005fb197001b
:102c7000efb19700000006000205be000004be0090
:102c8000e00f5000e08f5800e00f5900e08f59002e
:102c9000000006006000b8006011b8000804500091
:102ca000898458000a0559008b8559001c002000b2
:102cb000e00f5200e08f5a00000006000800be003e
:102cc0000a01be0000000600889fbe000004be008e
:102cd000060037000804e8000000fb0089007800c7
:102ce00019000700e10f400004003200184078008e
:102cf0000004e000f7ff3a000000eb004f04be00c4
:102d000000000600881f7800e1ba2000eeff0700ef
:102d100000047800e1ba2000a00020000a000700ab
:102d2000080078004f047800000006000000fa0058
:102d3000cfb8970068815700e0ba2000490007002b
:102d40000080fa0000000600889fbe0000017800a5
:102d500001047800b10090000118a3003d0032008a
:102d60000198a30003003a00180090000000e00062
:102d700038003a000190a0003104980082047800e5
:102d8000f90fb200180090000000e00002003a00c5
:102d900028009000000c7800ea8f540006003a00ea
:102da000380090000078a30003003a008800780003
:102db000d0002000e4ff0700980090005800900029
:102dc000808f50000b0032000100e80010049800d2
:102dd0001800780009587800000c780011c0b30082
:102de00020be200001487800ea8f5400060032001f
:102df0001900370088007800094078004202070077
:102e00008004780014003700380090000088a30088
:102e10001100320018019000a800900048009000b6
:102e20003604070098009000810f50000400320023
:102e3000380090000003b300300498008084eb0059
:102e40000000eb001004980028009000000c7800af
:102e5000010037008084eb00090078004f04be00b9
:102e600000000600fa874700889fbe008a9fbe00c8
:102e70008c9fbe008e1f7800f0b79f00010778007e
:102e800082bf9f000000eb00c0b79f001302370015
:102e90008046eb0050c2b30080cf500009003200e2
:102ea0000100fb00ffb09700a7ff0700e10f400003
:102eb0000a023200cfb097008100e800c1b79f003e
:102ec000060237009e407800d0c2b30080cf500089
:102ed0000c00320007003c006d40500080cf5000d5
:102ee0000a0032006b40400080cf50000e003a00d4
:102ef0000800370000c3b30080cf50000a003a003a
:102f0000060037000d34a000050037000d04a000b6
:102f1000030037000d14a000010037000d24a000ad
:102f20000e07e800e7ff37000d18a300010032008c
:102f30000d04a1000d38a300010032000d24a100f2
:102f40000100fb0002fd2f0002004000e90f5000cd
:102f50000e003e000002eb00d4b79f008201780013
:102f60005fb397006a30b9001e01fb000001410009
:102f700003014100d2b79f005e00fb000300400048
:102f8000e90f50000b003e00f5ff37000006eb0094
:102f9000dcb79f00a0c2b30080cf500005003a000c
:102fa0000fb89700c000780080bf9f00d1b79f0086
:102fb0000e07e8000001eb0092b79f00e0c2b300eb
:102fc0009e4f100017003a008e00e8006440500049
:102fd000914f100002003200010778000c0037000a
:102fe0000fba97004403780084bf9f0096b79f00f4
:102ff0000e87e8000b0037001fb697006a60b90023
:10300000000041000300400090b79f000e07e80059
:103010001e01fb0003fd2f0003004100e90f5000db
:10302000f5ff3600be407800a1df9f0030c7b30037
:1030300080cf50001a00320009003c007040500060
:1030400080cf5000640032006940400080cf5000c3
:103050000a0032000104e000a40132007d003700c4
:1030600050c7b30080cf50007e0032006340400064
:1030700080cf500077003a00060037000040eb0098
:103080000d48a30001003a0000c1b30080c67600dd
:10309000e4ff37008d4278000574a000730037000c
:1030a0008fb897004100780081bf9f00000478002e
:1030b0000000e00001003a0068bc20008004eb0042
:1030c000010037008104e80089007800088044008e
:1030d0001004e000fbff3a001fb197000200e0007f
:1030e00003003200890f5100010031008204780092
:1030f0000002eb0084b79f005fb39700890f530075
:10310000020036000900530080b79f004368de00cc
:10311000e10660001b003a000d0678000900370048
:10312000ffb097000002200007ff0700e10f4000fa
:10313000030032004fb097000000e800c0b79f00c6
:103140000c06e8008fb09700810f5600f4ff3a009c
:103150000081eb0082b79f000a00370088007800ea
:103160003100fb0001047800ffb09700f6fe070075
:10317000e10f4000030032004fb297000402e80064
:10318000c4b79f000900e90080047800e10f400007
:10319000f2ff3a000006eb000d00e0000a003a00e2
:1031a0004e013700ffb0970000022000e6fe070046
:1031b000e10f4000030032004fb397000603e80020
:1031c000c6b79f000c06e8000fb09700800f5600ae
:1031d000f4ff3a00410137008fb8970041007800b2
:1031e00081bf9f00cf80de0001017800820178005e
:1031f0000205be000004be000203be000002be00c5
:103200004822de00482edd0004027600a4df9f0085
:103210000d48a3000a0032000404e0000800320058
:10322000e14f420006003200b1fd2f00018047004f
:103230000448780018409800290020000200370058
:10324000b0df9f0019002000b2fd2f00028447006c
:10325000a1ff3700a4fd2f000484470019002000bf
:103260009dff370000ccb30080c276000583fb00d1
:10327000e6b79f000648a300070032000fbe970084
:103280004c00be008cbf9f006011b8000205be005c
:103290000004be00070037008fb897004100780097
:1032a00081bf9f0000047800090020000a00200070
:1032b0000b0020001fb197000200e00007003a0059
:1032c000e00f5400e08f5c00e00f5d00e08f5d00d8
:1032d00002003a001400200094b79f00efb097005e
:1032e000010cb20000082000808f50001400320052
:1032f000000c2000808f500025003a0014c0b3005d
:1033000006b020000b0037000400fb004300dd0086
:10331000060040005001be004000be000040e10039
:1033200001c8e10002d0e10003d8e1001700390034
:103330000442e800f44f5200f3ff3a001300370054
:1033400000012000010020006011b80014c0b3008b
:103350000040e10001c8e10002d0e10003d8e10033
:103360000a003900460020000000d0008180d20011
:103370000281d2008381d2000603e900faff3a00fd
:103380000442e800f04f5200f1ff3a00a4df9f0032
:103390002fde97000c00fb009fb09700810f5000bc
:1033a00002003d00a1df9f00040037001fb197001d
:1033b000800f510001003d0090b79f005fb2970061
:1033c0000400e000050032006fb397006300630063
:1033d000020032000402e900d4b79f008582fb009e
:1033e000a5b79f002fde97000c00fb008000eb00cc
:1033f000f1af9f005fb19700800f510002003400d1
:1034000000005100f0af9f002fb297000428a300e6
:10341000350032006fb39700e10063000418a30089
:103420000c003200d00220000100e00001003a0050
:103430000080e900ffb0970043fe0700e10f400065
:103440000e0032004fb697000c06e800ccb79f0084
:103450000a0037000100e00008003200ffb09700ca
:103460000002200038fe0700e10f40000300320098
:103470004fb097000000e800c0b79f00ffa897007a
:103480000100e0000f0032000006eb00ffb09700e3
:10349000000320002cfe0700e10f40000300320073
:1034a0004fb197000201e800c2b79f000c06e80088
:1034b0007faa9700840f5600f4ff3a000003eb0048
:1034c000f6af9f001fb697004360dd0081af20007c
:1034d000810640004260dd00640650000000eb0001
:1034e000b0b79f0066003700ffa897000100e0001a
:1034f000120032002fb19700680061000f003a00ff
:1035000000067800ffb09700000220000efe0700c2
:10351000e10f4000030032004fb297000402e800c0
:10352000c4b79f000c06e8007fab9700860f5600db
:10353000f4ff3a000006eb00fcaf9f006fb097006d
:10354000e10060002fb197000218a3000c003200c8
:10355000d00220000100e00001003a000080e900f4
:10356000ffb09700f8fd0700e10f4000d5ff3200e3
:103570004fb297000402e800c4b79f00d1ff3700a4
:103580000100e000cfff3200ffb0970000022000f2
:10359000edfd0700e10f4000caff32004fb3970076
:1035a0000603e800c6b79f00c6ff3700efb09700dc
:1035b000010cb20000082000808f50001000320083
:1035c000000c2000808f50001f003a003d02be001a
:1035d0002d03be000800be000a01be0029fd070041
:1035e000a4002000050020006033b8002cfd070077
:1035f00004c3b30004424000a4df9f001200370060
:1036000014002000050020006033b8000c00780092
:103610000000e900050033000402d0008582d200da
:103620000683d2008783d200f9ff37000800be006e
:103630000a01be0013fd07006f006000d4bc20002b
:1036400064427800a4df9f00afd897000100fb0020
:10365000ffb09700bcfd0700e10f400003003200ff
:103660004fb197000201e800c2b79f003fb2970038
:103670000402e800b4b79f00e886560064065600ce
:103680003fb397001fb09700800f5300c7ff3a0069
:10369000afb097000138a300100032007fa9970057
:1036a0000200e0000d0034000006eb00ffb09700c0
:1036b00000022000a4fd0700e10f400003003200db
:1036c0004fb297000402e800c4b79f000c06e80060
:1036d0007fab9700860f5600f4ff3a00be4078009b
:1036e000a1df9f000104e000e9fd3a004fb0970020
:1036f0004f0778004f06be004f05be004f04be00c6
:10370000af01b100000006000200fa00889fbe0071
:10371000a0ff9f0001047800b100900081047800b0
:103720000904b200020032000000fb00360037003e
:103730000118a30005003a000103b300310498000a
:10374000190498000080eb002f003700580090000b
:103750000000e00006003a0048009000120020003f
:10376000e6805700e501070019049800240037009f
:10377000280090000000e00008003a00e0bd2000b2
:1037800020049800000c78002000200050049800cd
:10379000100498000130a000310498001801900036
:1037a000a800900048009000d40107002800900075
:1037b000000c78000080eb001004980018007800de
:1037c000aff8970001587800000c78002ff89700a8
:1037d000ea4f50000a003a00380090000088a30029
:1037e0000700320018019000a800900048009000e7
:1037f000c201070019049800a8009000010c78008d
:10380000aff897000100fb004f04be000080fa00f3
:0438100000000600ae
:020000040000fa
:020000040002f8
:04aff400031c00003a
:020000040000fa
:020000040002f8
:04aff8000f890000bd
:020000040000fa
:020000040002f8
:04affc007f3e000094
:020000040000fa
:102000001011040000000000243004000000000053
:102010002430040000000000243004000000000010
:102020002430040000000000243004000000000000
:1020300024300400000000002430040000000000f0
:1020400024300400000000002430040000000000e0
:1020500024300400000000002430040000000000d0
:1020600024300400000000002430040000000000c0
:1020700024300400000000002430040000000000b0
:10208000741e0400000000004e1e0400000000004a
:102090002430040000000000243004000000000090
:1020a0002430040000000000243004000000000080
:1020b0002430040000000000243004000000000070
:1020c0002430040000000000243004000000000060
:1020d0002430040000000000243004000000000050
:1020e0002430040000000000243004000000000040
:1020f0002430040000000000c01e040000000000a6
:102100009a1e0400000000002430040000000000bb
:10211000243004000000000024300400000000000f
:1021200024300400000000002430040000000000ff
:1021300024300400000000002430040000000000ef
:1021400024300400000000002430040000000000df
:1021500024300400000000002430040000000000cf
:1021600024300400000000002430040000000000bf
:1021700024300400000000002430040000000000af
:10218000243004000000000024300400000000009f
:10219000243004000000000024300400000000008f
:1021a000243004000000000024300400000000007f
:1021b00024300400000000000c1f04000000000098
:1021c000e61e0400000000002430040000000000af
:1021d000243004000000000024300400000000004f
:1021e0002430040000000000581f0400000000001c
:1021f000321f040000000000243004000000000032
:10220000243004000000000024300400000000001e
:10221000243004000000000024300400000000000e
:020000040000fa
:1000080004100000081000000c1000001010000080
:10001800141000000c1100000c1100000c1100005d
:10002800181000001c100000201000002410000010
:100038000c110000281000002c10000030100000e7
:1000480034100000381000003c1000004010000080
:1000580044100000481000000c1100000c110000b2
:100068004c10000050100000541000005810000000
:100078005c1000000c11000060100000641000000b
:100088000c110000681000006c10000070100000d7
:1000980074100000781000007c1000008010000030
:1000a80084100000881000000c1100000c110000e2
:1000b8000c1100008c10000090100000941000003b
:1000c800981000009c100000a0100000a410000070
:1000d800a8100000ac1000000c1100000c1100006a
:1000e8000c110000b0100000b41000000c1100004a
:1000f8000c110000b8100000bc1000000c1100002a
:100108000c1100000c1100000c1100000c11000073
:100118000c1100000c110000c01000000c110000b0
:100128000c110000c4100000c8100000cc10000022
:100138000c1100000c1100000c1100000c11000043
:10014800d01000000c1100000c1100000c11000070
:100158000c110000d41000000c1100000c1100005c
:100168000c110000d8100000dc100000e0100000a6
:10017800e4100000e8100000ec100000f01000008f
:10018800f4100000f8100000fc100000001100003e
:1001980004110000081100000c1100000c110000ef
:1001a8000c1100000c1100000c1100000c110000d3
:1001b8000c1100000c1100000c1100000c110000c3
:1001c8000c1100000c1100000c1100000c110000b3
:1001d8000c1100000c1100000c1100000c110000a3
:1001e8000c1100000c1100000c1100000c11000093
:0801f8000c1100000c110000c5
:020000040000fa
:10381400486500006c6c00006f200000576f0000ca
:10382400726c000064210000005700006861000011
:103834007420000069730000207900006f75000097
:10384400722000006e6100006d6500003f200000e2
:1038540000480000656c00006c6f0000202500002b
:10386400732100000a000000547900007065000014
:10387400207300006f6d000065740000686900002b
:103884006e6700002061000074200000746800006e
:1038940065200000707200006f6d000070740000fd
:1038a4002e0a0000003e00003e20000000590000e7
:1038b4006f750000207400007970000065640000da
:1038c4002027000025730000270a000000000000e4
:020000040000fa
:1038d4000400fa00000f7800214798001e007800c9
:1038e40010009000100078004900de0061006000c4
:1038f4000004e000f9ff3a001e007800a0009000e8
:103904002e4090000080fb00800878000080fa00c0
:10391400000006000400fa00000f78001e00780082
:103924001000900010007800610060000004e000c6
:10393400030032000040eb002047980002003700eb
:1039440010c0b300204798002e4090000004e0000f
:10395400f2ff3a001e00780030009000100078005a
:103964000080fb000080fa00000006000400fa005a
:10397400000f7800214798001e007800d0109000b6
:103984001e00780020109000808f5000faff320053
:103994001e007800901090001e00780040109000e7
:1039a40000804000ae409000014878001e0078007e
:1039b400401090008000e8001e0078002011900064
:1039c400110009008280d8008000fd00800078008a
:1039d4001e007800411098001e00780050109000de
:1039e4008000e8001e007800511098001e00780046
:1039f400d01090001e00780030189000808f500086
:103a0400080039001e007800100190001e007800a4
:103a140010009000900078000040200000807000aa
:103a2400000978000080fa00000006000400fa0093
:103a3400100798001e009000d00190001e00900016
:103a440050009000100178001e0090006048900023
:103a54008080fb00100020000100dd000080ea00ef
:103a640000006100800978001e0090005010900052
:103a74000000e00023003a001e00900010019000b6
:103a84001e0090001000900090007800f0bf2f00fe
:103a940000806000000978001a0037001e009000c2
:103aa400901090001e0090003010900000804000a4
:103ab400104f78001e009000301090008000e80045
:103ac4001e00900020119000110009008280d8008f
:103ad4008000fd00800078001e00900031109800e6
:103ae4001e009000501090008000e9001e0090001d
:103af400511098001e009000a00090001e80fb0052
:103b0400800878001e0090001000900010007800db
:103b14004900de000000a200610060000004a20071
:103b24000004e00004003a001e00900050109000d1
:103b34000000e000d9ff3a000080fa00000006000f
:103b44000400fa00100798001e009000201890004e
:103b54000000e000fcff32001e009000e010900026
:103b64001e0090000018900000804000104f780064
:103b74001e009000001890008000e8001e009000d5
:103b840070119000110009008280d8008000fd00af
:103b9400800078001e009000011898001e0090001c
:103ba400201890008000e9001e0090002118980061
:103bb4001e80fb000080fa00000006000200fa00ec
:103bc400000f78001e007800d00190001e007800dd
:103bd40050009000100178001e007800704890009a
:103be4008080fb00100020000100dd000080ea005e
:103bf4000000610080097800190037001e00780079
:103c0400e01090001e0078001018900080804000a2
:103c14001e00780030009000100078008048780082
:103c24001e007800101890008000e8001e00780044
:103c340070119000110009008280d8008000fd00fe
:103c4400800078001e007800111898001e0078008b
:103c5400201890008000e8001e00780021189800c9
:103c64001e007800100090001000780061006000d1
:103c74000004e000060032001e007800a018900046
:103c84001e00780070109000808f5000dbff3a0017
:103c94000080fa00000006003600f800809fbe0095
:103ca400829fbe00849fbe00869fbe003200f80043
:103cb40000202000900188000000fa00809b200072
:103cc4005aff07000080fa003200f9004f03be00db
:103cd4004f02be004f01be004f00be003600f90087
:103ce400004006003600f800809fbe00829fbe00a0
:103cf400849fbe00869fbe003200f8000020200092
:103d0400900188000000fa00809b2000abff0700b0
:103d14000080fa003200f9004f03be004f02be00db
:103d24004f01be004f00be003600f90000400600ff
:103d34003600f800809fbe00829fbe00849fbe00b4
:103d4400869fbe003200f800002020009001880009
:103d54000000fa00409f200034ff07000080fa00b2
:103d64003200f9004f03be004f02be004f01be00f7
:103d74004f00be003600f900004006003600f8008f
:103d8400809fbe00829fbe00849fbe00869fbe00af
:103d94003200f80000202000900188000000fa00a2
:103da400409f200085ff07000080fa003200f900e0
:103db4004f03be004f02be004f01be004f00be00c5
:103dc4003600f900004006003600f800809fbe006f
:103dd400829fbe00849fbe00869fbe003200f80012
:103de40000202000900188000000fa0000a32000b9
:103df4000eff07000080fa003200f9004f03be00f6
:103e04004f02be004f01be004f00be003600f90055
:103e1400004006003600f800809fbe00829fbe006e
:103e2400849fbe00869fbe003200f8000020200060
:103e3400900188000000fa0000a320005fff070043
:103e44000080fa003200f9004f03be004f02be00aa
:103e54004f01be004f00be003600f90000400600ce
:103e64003600f800809fbe00829fbe00849fbe0083
:103e7400869fbe003200f8000020200090018800d8
:103e84000000fa00c0a62000e8fe07000080fa0047
:103e94003200f9004f03be004f02be004f01be00c6
:103ea4004f00be003600f900004006003600f8005e
:103eb400809fbe00829fbe00849fbe00869fbe007e
:103ec4003200f80000202000900188000000fa0071
:103ed400c0a6200039ff07000080fa003200f90074
:103ee4004f03be004f02be004f01be004f00be0094
:103ef4003600f900004006000a00fa001007980096
:103f040021079800320798001e009000400798008f
:103f14004e0090000000e000260035004e009000a6
:103f2400e10f5000040034004e009000e20f5000f6
:103f3400110032001f0037000000eb00000f780072
:103f4400080037002e009000904078002e0090006a
:103f54000000e8002007980040558000570407003f
:103f64001e0fe8009e0078003e009000808f5000f5
:103f7400f4ff39000f0037000000eb00000f780059
:103f8400080037002e009000904078002e0090002a
:103f94000000e800200798005055800047040700ff
:103fa4001e0fe8009e0078003e009000808f5000b5
:103fb400f4ff39003e0090000080fa000000060083
:103fc4000000fa00889fbe008a9fbe0050050700cb
:103fd400406d2000022f2000212f2000801f780038
:103fe4005701200086c0b3008082eb0064c0b30098
:103ff4008001eb00c0aa20007d0607008f87e9003e
:10400400a06d2000022f2000212f2000801f7800a7
:10401400a70120000043eb008082eb0074c0b300d2
:104024008001eb0020ac2000710607008f87e900b7
:10403400416a2000426a200047092000430820000a
:104044008422200068222000492220002a22200005
:104054000b22200040002000801f78003000200048
:10406400801f78008f87e80080c0b300e0ff9f00c6
:104074008f87e8000040eb00e0ff9f00811f78007d
:10408400821f78008f87e800b0c0b300e0ff9f0074
:104094008f87e800c0c0b300e0ff9f0003037800ef
:1040a4008402780008027800890178000a01780007
:1040b4008b007800809b20008b000700f08757005e
:1040c400616a2000626a20006709200063082000fa
:1040d4008423200068232000492320002a23200071
:1040e4000b23200060002000801f78005000200077
:1040f400801f78008f87e80080c0b300e0ff9f0036
:104104008f87e8000040eb00e0ff9f00811f7800ec
:10411400821f78008f87e800e0c0b300e0ff9f00b3
:104124008f87e800f0c0b300e0ff9f00030378002e
:104134008402780008027800890178000a01780076
:104144008b007800409f200067000700f08757002d
:10415400a16a2000226a2000e7092000e308200069
:104164008425200068252000492520002a252000d8
:104174000b252000d0012000801f7800c001200002
:10418400801f78008f87e80080c0b300e0ff9f00a5
:104194008f87e80080c0b300e0ff9f00811f780094
:1041a400821f78008f87e80020c0b300e0ff9f00e3
:1041b4008f87e80030c0b300e0ff9f00030378005e
:1041c4008402780008027800890178000a017800e6
:1041d4008b00780000a3200043000700f0875700fd
:1041e400616b2000626b2000e7092000e3082000d7
:1041f400842b2000682b2000492b20002a2b200030
:104204000b2b2000f0012000801f7800e00120002b
:10421400801f78008f87e80080c0b300e0ff9f0014
:104224008f87e8000040eb00e0ff9f00811f7800cb
:10423400821f78008f87e80080c0b300e0ff9f00f2
:104244008f87e80090c0b300e0ff9f00030378006d
:104254008402780008027800890178000a01780055
:104264008b007800c0a620001f000700f0875700cd
:104274000000eb00801f78000000eb00801f780036
:104284000000eb00801f78000000eb00801f780026
:104294000000eb00801f780010002000801f7800d1
:1042a400e5c4b30006002000676924000002eb00a7
:1042b4008001eb0022ac2000c1aa2000809b2000da
:1042c40074000700ec875700809b2000405588004d
:1042d400809b2000505588004f05be004f04be004f
:1042e4000080fa00000006001000fa00000f7800b9
:1042f4001107980022079800330798004407980094
:104304005507980066079800770798001e00780004
:104314009e009000010878001e007800ae00900016
:10432400110098001e007800be0090002100980043
:104334001e007800ce009000310098001e00780026
:10434400de009000410098001e007800ee0090000e
:10435400510098001e007800fe0090006100980053
:104364001e0078008ef89700614898001e007800bf
:10437400eef09700714898001e007800aeb89700e0
:10438400010898001e0078009eb897001108980054
:104394001e0078008ef09700415098001e007800af
:1043a400eee89700515098001e007800eeb0970098
:1043b400310898001e007800deb09700410898008c
:1043c4009e0078000000eb00d00898009e00780062
:1043d4000000eb00e00898009e0078000000eb006d
:1043e400f00898009e0078000000eb008010980010
:1043f4009e0078000000eb00901098009e0078006a
:104404000000eb00a01098009e0078000000eb0074
:10441400b01098009e0078000000eb00c0109800d7
:104424009e0078000000eb00d01098009e007800f9
:104434000000eb00e01098009e0078000000eb0004
:10444400f01098009e0078000000eb00801898009f
:104454009e0078000000eb00901898009e00780001
:104464000000eb00a01898009e00780010002000c7
:10447400b01898009e0078000000eb00c018980067
:104484009e0078000000eb00d01898000080fa002d
:10449400000006001000fa00881f7800000f780062
:1044a40011079800220798003307980044079800e2
:1044b4005607980067079800654f98001e0078001b
:1044c400900078000000eb00800878001e00900047
:1044d40060009000e10f4000070232002e009000bf
:1044e40060009000e10f400001003a000202370032
:1044f4001e009000000890000000e00069003a00ef
:104504002e009000000890000000e00065003a00d2
:104514001e009000890507001e009000e2050700b8
:104524002e0090005e0507001e0078009e0090009b
:10453400510898001e0090009e017800030898001e
:104544009e0090000000eb00900898009e009000f0
:104554000000eb00a00898001e007800ae00900058
:10456400610898002e0090009e01780003089800ce
:10457400ae0090000000eb0090089800ae009000a0
:104584000000eb00a0089800113a8000f00b200016
:104594000081600061042000700520002374200065
:1045a4008149780080497800824978001e00900093
:1045b400f00190001e00900070009000100178003f
:1045c4001e009000204890008080fb00f003200033
:1045d4000100dd000080ea0000006100800978002d
:1045e4001e009000f00190001e00900070009000ea
:1045f400100178001e007800b00890001e009000a2
:10460400204890000080fb000008dd0000007100dd
:10461400800978001e007800800990001e00780050
:1046240000089000100178001e00780040509000af
:104634008080fb00f00320000100dd000080ea0020
:1046440000006100800978001e0078008009900055
:104654001e00780000089000100178002e009000e1
:10466400e00090001e007800405090000080fb00a5
:104674000008dd000000710080097800113a800014
:1046840000042000008170006104200070052000f7
:104694002374200081497800804978008249780099
:1046a4000b0037001e007800d00890001e00900018
:1046b400808f500090013a001e007800e0089000be
:1046c4002e009000808f5000010032008a013700d4
:1046d4003e0090000000e000890032004e0090008f
:1046e4000000e000860032003e0090006000900070
:1046f400e10f4000800132004e0090006000900005
:10470400e10f400001003a007b0137003e009000b9
:10471400000890000000e00069003a004e0090009c
:10472400000890000000e00065003a003e009000a0
:10473400020507003e0090005b0507004e00900054
:10474400d70407001e007800be009000710898008e
:104754003e0090009e01780003089800be0090007f
:104764000000eb0090089800be0090000000eb00f1
:10477400a00898001e007800ce0090000110980058
:104784004e0090009e01780003089800ce0090002f
:104794000000eb0090089800ce0090000000eb00b1
:1047a400a0089800113a8000f00b200000816000fe
:1047b40061042000700520002374200081497800e2
:1047c40080497800824978003e009000f001900012
:1047d4003e00900070009000100178003e009000b0
:1047e400204890008080fb00f00320000100dd00e1
:1047f4000080ea0000006100800978003e0090001b
:10480400f00190003e0090007000900010017800cc
:104814001e007800c00890003e00900020489000e0
:104824000080fb000008dd000000710080097800b2
:104834001e007800900990001e0078001008900077
:10484400100178001e007800505090008080fb001a
:10485400f00320000100dd000080ea000000610098
:10486400800978001e007800900990001e007800ee
:1048740010089000100178004e009000e0009000b5
:104884001e007800505090000080fb000008dd00fe
:104894000000710080097800113a800000042000b3
:1048a4000081700061042000700520002374200042
:1048b4008149780080497800824978000b003700ec
:1048c4001e007800f00890003e009000808f500099
:1048d40009013a001e007800801090004e009000fc
:1048e400808f500001003200030137001e00780061
:1048f400900078000020200080087800070037002e
:104904003e0090000000e000fb003a004e009000e2
:104914000000e00001003200f700370002402200ee
:1049240043a724005e009000ee009000adf607005f
:104934000000e00001003c000400370000402200b9
:1049440041a7240050079800610798000240220004
:10495400431724005e009000ee009000a3f60700c9
:104964000000e00001003500040037000040220090
:104974004117240050079800610798000240220064
:10498400432724005e009000ee00900097f6070095
:104994000000e000010034000e0037001e00780023
:1049a400400490005e019000ee019000004022005f
:1049b400419724008ff607000200200003f0230033
:1049c400cff607002bf707000000e900000c780081
:1049d400140037001e007800900078001e00780054
:1049e40010007800100078000030a00080087800e3
:1049f4001e007800400490005e019000ee019000db
:104a04000040220041a724007af60700020020009b
:104a140003f02300baf6070016f707000000e900c8
:104a2400000c7800ee48900050c4b30080cf5000d2
:104a340004003200ee48900050c6b30080cf50000e
:104a440008003a001e007800900078001e007800ec
:104a540010007800100078000010a0008008780092
:104a640018003700ee489000f0c4b30080cf500027
:104a740004003200ee489000f0c6b30080cf50002e
:104a840008003a001e007800900078001e007800ac
:104a940010007800100078000020a0008008780042
:104aa40008003700ee489000e0c4b30080cf500007
:104ab40004003200ee489000e0c6b30080cf5000fe
:104ac4008d003a004eb89700e20f500008003a00fb
:104ad4001e007800900078001e0078001000780016
:104ae400100078000000a000800878000300370060
:104af4004eb89700e10f50007f003a002eb897009f
:104b04000000e00004003a009e007800a0c62100e6
:104b1400c0189800360037001e007800100190007d
:104b24001e00780010009000900078000000220021
:104b340000807000000978001e007800aeb897006d
:104b4400111098001e0078009eb997002310980059
:104b54009e0078000000eb00b01098009e007800e2
:104b64000000eb00c01098009e0078000000eb00ed
:104b7400d01098001e007800beb897003118980035
:104b84009e00780080cb2100c01898001e00780099
:104b9400d00190001e0078005000900010017800b1
:104ba4001e007800604890008080fb001000200008
:104bb4000100dd000080ea00000061008009780047
:104bc4001e007800e00190001e0078006000900054
:104bd400100178001e007800604890008080fb007f
:104be400100020000100dd00000071008009780041
:104bf4000eb897000000e00004003a009e00780020
:104c0400c0c82100d01898002b0037001e0078007f
:104c14008eb99700631098001e007800feb09700cc
:104c2400711098009e0078000000eb008018980036
:104c34009e0078000000eb00901898009e00780019
:104c44000000eb00a01898009e00780020da2100f4
:104c5400d01898001e007800d00190001e00780043
:104c640050009000100178001e00780070489000f9
:104c74008080fb00100020000100dd000080ea00bd
:104c840000006100800978001e007800e0019000b7
:104c94001e00780060009000100178001e0078006b
:104ca400704890008080fb00100020000100dd00af
:104cb40000007100800978001e007800100178005f
:104cc4001e00780010007800900078000000280092
:104cd40000807000000978001e0078001001900028
:104ce4001e00780010009000900078000040200022
:104cf40000807000000978004f0478000080fa00fa
:104d0400000006000200fa00000f78001e00780080
:104d1400100190001e0078001000900090007800b0
:104d2400f0bf2f0000806000000978001e007800aa
:104d3400900078000000eb00800878001e007800e6
:104d4400e00190001e0078006000900010017800df
:104d54001e007800604890008080fb001000200056
:104d64000100dd000080ea00000061008009780095
:104d74001e007800e00190001e00780060009000a2
:104d8400100178001e007800704890008080fb00bd
:104d9400100020000100dd000080ea000000610036
:104da400800978009e0078000000eb00c01898008d
:104db4009e0078000000eb00d01898001e007800d8
:104dc400500890000000e0002f003200113a8000eb
:104dd400f00b2000008160006104200070052000b9
:104de4002374200081497800804978008249780042
:104df4001e00780050089000f00190001e0078001a
:104e04005008900070009000100178001e00780097
:104e140050089000204890008080fb00f0032000a0
:104e24000100dd000080ea000000610080097800d4
:104e3400113a800000042000008170006104200009
:104e4400700520002374200081497800804978008f
:104e5400824978001e007800d00890000000eb0022
:104e6400800898001e007800500890003303070063
:104e74001e007800500890008b0307009e00780005
:104e84000000eb00d00898001e0078006008900035
:104e94000000e00028003200113a8000f00b2000ee
:104ea400008160006104200070052000237420004c
:104eb4008149780080497800824978001e00780092
:104ec400800990001e00780000089000100178000e
:104ed4001e007800405090008080fb00f00320000a
:104ee4000100dd000000710080097800113a8000a3
:104ef400000420000081700061042000700520007f
:104f04002374200081497800804978008249780020
:104f14001e007800e00890000000eb008008980074
:104f24001e00780060089000dd0207009e007800f3
:104f34000000eb00e00898001e0078007008900064
:104f44000000e0002f003200113a8000f00b200036
:104f5400008160006104200070052000237420009b
:104f64008149780080497800824978001e007800e1
:104f740070089000f00190001e0078007008900006
:104f840070009000100178001e00780070089000f6
:104f9400204890008080fb00f00320000100dd0029
:104fa4000080ea000000610080097800113a800066
:104fb40000042000008170006104200070052000be
:104fc4002374200081497800804978008249780060
:104fd4001e007800f00890000000eb0080089800a4
:104fe4001e00780070089000d40207001e007800ac
:104ff400700890002c0307009e0078000000eb006e
:10500400f00898001e007800001090000000e000f6
:1050140028003200113a8000f00b2000008160006b
:105024006104200070052000237420008149780069
:1050340080497800824978001e0078009009900029
:105044001e00780010089000100178001e007800ff
:10505400505090008080fb00f00320000100dd0030
:105064000000710080097800113a800000042000db
:10507400008170006104200070052000237420006a
:105084008149780080497800824978001e007800c0
:10509400801090000000eb00800898001e0078004b
:1050a400001090007e0207009e0078000000eb00d4
:1050b400801098000080fa00000006000400fa0046
:1050c400000f7800214798001e00780040189000d7
:1050d4000000e000050032001e0078004019900036
:1050e400ae4090001e007800020001000080fa002b
:1050f400000006000400fa00000f78001e0078008b
:10510400501890000000e000070032001e007800f4
:10511400d01890001e007800010001000080fb0000
:105124001007980002003700f00f200010079800c5
:105134001e0090000080fa00000006000200fa0041
:10514400000f78001e007800100090001000780016
:105154004a00de000000a200610060000004e000dc
:10516400080032001e007800100190001e00780034
:105174001000900090007800004020000080700033
:10518400000978000080fa00000006000400fa001c
:10519400000f780011079800070037001e009000e8
:1051a400904078001e0090000000e800100798006e
:1051b4001e007800c1ff07001e0090001040780018
:1051c4000004e000f5ff3a001e007800dbff070052
:1051d4000080fa00000006000a00fa002007980088
:1051e40031079800420798004e0090000000e0004c
:1051f400820032004e009000e10f500004003a009b
:10520400be0090000040eb00804878007b0037002f
:10521400b1c1b3002e009000a8ff070071c3b30012
:105224002e009000a5ff07002e009000c3ff07008a
:105234003e009000100798004e009000000f780088
:10524400000037002e009000aaff0700804078007d
:105254003e009000014878003e0090001040780025
:10526400ed4f50005a0032003e009000104078008c
:10527400fb4f500016003a00b1c1b3002e0090005d
:105284008eff070081c3b3002e0090008bff070040
:10529400b1c1b3002e00900088ff0700b1c5b30070
:1052a4002e00900085ff0700b1c4b3002e009000cb
:1052b40082ff07002e009000a0ff07001e00900050
:1052c400300798004e009000000f7800ddff370093
:1052d4003e00900010407800e84f50000500320076
:1052e4003e00900090407800f0c7b30080cf50009b
:1052f4001a003a00be0090001e009000808f5000fb
:105304001000360081c0b3002e0090006bff070030
:1053140001c2b3002e00900068ff070081c0b300f3
:105324002e00900065ff07002e00900083ff070009
:105334003e0090000000e900300798001e0fe800ce
:10534400c0ff370071c0b3002e0090005bff070060
:105354002e00900079ff0700baff370010002000ec
:105364009e0f100006003a0071c0b3002e0090009a
:1053740052ff07002e00900070ff0700b1ff3700b6
:105384003e00900010407800ff4f5000adff360003
:105394003e00900090407800e0c7b30080cf5000fa
:1053a400a8ff3e003e009000904078002e00900040
:1053b40042ff07002e00900060ff07003e009000af
:1053c4000000e800300798001e0fe9009dff370039
:1053d400be0090000040eb0080487800a1c0b300fc
:1053e4002e00900035ff0700d1c0b3002e009000be
:1053f40032ff07002e00900050ff07000080fa00e3
:10540400000006000400fa00000f7800110798005d
:105414001e0090000000e0000d0032001e00780025
:10542400900178001e0078001000780010017800c8
:105434001e007800604090008080fb001000200077
:105444000100dd0000007100800978000d003700c4
:105454001e007800900178001e007800100078008b
:10546400100178001e007800604090008080fb00ee
:10547400100020000100dd000080ea00000061004f
:10548400800978000080fa00000006000400fa0099
:10549400000f78001e0078001000780010017800da
:1054a4001e007800604090008080fb001000200007
:1054b4000100dd0000006100100798001e0090004c
:1054c4000000e000020032001000200010079800e5
:1054d4001e0090000080fa00000006000200fa009e
:1054e400000f78001e0078004000900040198800ea
:1054f4002023a80020c3bf00614060000004e00036
:10550400fcff3200001880000080fa000000060052
:105514000200fa00889fbe00406d2000822d20000a
:10552400a12d2000801f7800470120000043eb00dc
:105534008082eb0054c0b3008001eb0000802000a7
:105544002b0107008f87e900806d2000822d200049
:10555400a12d200068812000801f78009701200081
:1055640086c0b3008082eb0044c0b3008001eb002e
:10557400080078001e0107008f87e900a06c200056
:10558400822e2000a12e2000c8822000801f7800d7
:10559400a70020000043eb008082eb0044c0b3006e
:1055a4008001eb0008007800110107008f87e900f3
:1055b400006d2000822e2000a12e200028842000cf
:1055c400801f78001701200086c0b3008082eb00a2
:1055d40054c0b3008001eb00080078000401070008
:1055e4008f87e900c06d2000214e2000822c20000e
:1055f400a82c200089852000801f7800d701200076
:1056040086c0b300f5002000f4c0b3008101780027
:105614008800780009007800f50007008f87e9000a
:10562400006d2000822e2000a12e2000e88620009c
:10563400801f7800070120000043eb008082eb000c
:1056440034c0b3008001eb0008007800e8000700d4
:105654008f87e900206c2000822d2000a12d2000de
:1056640048882000801f7800270020000043eb00ba
:105674008082eb0084c0b3008001eb000800780056
:10568400db0007008f87e900c06c2000822d20001a
:10569400a12d2000a8892000801f7800c7002000c9
:1056a4000043eb008082eb00b4c0b3008001eb0048
:1056b40008007800ce0007008f87e900406c2000c6
:1056c400822d2000a12d2000088b2000801f78004f
:1056d400470020000043eb008082eb0094c0b3003d
:1056e4008001eb0008007800c10007008f87e90003
:1056f400206c2000822d2000a12d2000688c200029
:10570400801f78003700200086c0b3008082eb0041
:10571400a4c0b3008001eb0008007800b4000700c7
:105724008f87e900a06c2000822d2000a12d20008d
:10573400c88d2000801f7800b700200086c0b30009
:105744008082eb000042eb008001eb00080078004f
:10575400a70007008f87e900806d2000822d2000bc
:10576400a12d2000288f2000801f780087012000b1
:105774000043eb008082eb0014c0b3008001eb0017
:10578400080078009a0007008f87e900606d200008
:10579400822d2000a12d200088902000801f7800f9
:1057a4007701200086c0b3008082eb0024c0b300e0
:1057b4008001eb00080078008d0007008f87e90066
:1057c400606d2000822d2000a12d2000e891200092
:1057d400801f7800670120000043eb008082eb000b
:1057e40034c0b3008001eb0008007800800007009b
:1057f4008f87e900006c2000214e2000822c2000bd
:10580400a82c2000801f78008003eb000043eb00ed
:105814008002eb000042eb008101780088007800f0
:1058240040932000720007008f87e900006c20007d
:10583400214e2000822c2000a82c2000a9942000b6
:10584400801f78001700200086c0b30015002000d8
:1058540014c0b30081017800880078000900780042
:10586400630007008f87e900c06c2000214e2000f0
:10587400822c2000a82c200009962000801f78008c
:10588400d700200086c0b3002500200024c0b30048
:10589400810178008800780009007800540007002e
:1058a4008f87e900214e2000822c2000a82c2000a4
:1058b400699720000000eb00801f78008083eb00d4
:1058c4000043eb003500200034c0b30081017800b0
:1058d4008800780009007800450007008f87e900f8
:1058e400c06d2000214e2000822c2000a82c200016
:1058f400c9982000801f7800c70120000043eb00f6
:105904004500200044c0b30081017800880078007d
:1059140009007800360007008f87e900206d200019
:10592400214e2000822c2000a82c2000299a20003f
:10593400801f7800270120000043eb005500200061
:1059440054c0b30081017800880078000900780011
:10595400270007008f87e9000000eb00000f7800a4
:10596400070037001e0078007600b9008000780038
:105974000080200000804000490007001e0fe8005e
:10598400d00020009e0f1000f6ff36000000eb0050
:10599400000f7800070037001e0078007600b90079
:1059a40080007800409320000080400098000700a9
:1059b4001e0fe800500020009e0f1000f6ff360076
:1059c400002e2000001988000000eb001019880048
:1059d40000c42000201988000000eb004019880052
:1059e40021e3a8004f04be000080fa000000060076
:1059f4001000fa00000f78001107980022079800a1
:105a040033079800044f980055079800464f9800b4
:105a1400770798001e0078009e0090000108780027
:105a24001e007800ae009000110098001e0078005f
:105a3400be009000210098001e0078008e4890005f
:105a4400614098001e007800de009000410098003c
:105a54001e007800ce48900021489800fe00900077
:105a64001e007800610098001e007800ceb89700f0
:105a7400710098009e0078000000eb0080089800f8
:105a84009e0078000000eb00900898009e007800cb
:105a94000000eb00a00898000080fa000000060057
:105aa4000200fa00000f78001e0078002000900029
:105ab4000000e0000d0032001e007800a0019000fc
:105ac4001e00780020009000100178001e0078006d
:105ad400604090008080fb00100020000100dd0089
:105ae4000080ea0000006100800978001e00780050
:105af400900190001e0078001000900010017800c2
:105b04001e007800604090008080fb0010002000a0
:105b14000100dd0000007100800978009e0078001b
:105b24000000eb00900898009e00780080a42200fa
:105b3400a00898000080fa00000006000200fa00a5
:105b4400000f78001e007800200090000000e000a4
:105b54000d0032001e007800a00190001e007800a5
:105b640020009000100178001e0078006040900032
:105b74008080fb00100020000100dd000080ea00ae
:105b840000006100800978001e0078009001780010
:105b94001e00780010007800100178001e007800c4
:105ba400604090008080fb00100020000100dd00b8
:105bb4000080ea0000006100800978001e0078007f
:105bc400900190001e0078001000900010017800f1
:105bd4001e007800604090008080fb0010002000d0
:105be4000100dd000080ea00000061008009780007
:105bf4009e00780040a02200900898009e00780043
:105c040080a42200a00898000080fa00000006008a
:105c14000200fa00000f78001e00780020009000b7
:105c24000000e0001e0032001e0078009001900089
:105c34001e00780010009000100178001e0078000b
:105c4400604090008080fb00100020000100dd0017
:105c540000007100800978001e007800a001900007
:105c64001e00780020009000100178001e007800cb
:105c7400604090008080fb00100020000100dd00e7
:105c840000007100800978009e0078000000eb009d
:105c9400900898009e00780000a72200a0089800b1
:105ca4000080fa00000006000200fa00000f7800ed
:105cb4001e0078009008900040a02200808f5000c1
:105cc4000c003a001e007800900178001e00780055
:105cd40010007800100178001e00780060409000e9
:105ce4008080fb00100020000100dd000000710036
:105cf400800978000080fa00000006000200fa0023
:105d0400000f78001e0078009008900040a0220048
:105d1400808f50000d003a001e007800900178003a
:105d24001e00780010007800100178001e00780032
:105d3400604090008080fb00100020000100dd0026
:105d44000080ea0000006100800978000080fa0009
:105d5400000006000200fa00000f78001e00780020
:105d64009008900040a02200808f50000c003a0060
:105d74001e007800900178001e0078001000780062
:105d8400100178001e007800604090008080fb00c5
:105d9400100020000100dd00000069008009780087
:105da4000080fa00000006000400fa00000f7800ea
:105db400110798001e007800100890000000e00011
:105dc400050032001e007800100990009e0090002b
:105dd4001e007800020001000080fa0000000600a6
:105de4000400fa00000f78001e00780020089000dc
:105df4000000e000060032001e007800a0089000b9
:105e04001e0078000100010010079800020037000e
:105e14000080eb00100798001e0090000080fa003c
:045e24000000060074
:020000040000fa
:105e2800d80a0000280000008000000000080000d8
:105e3800b801000080000000b8090000200100003f
:105e480080000000a00b0000260000008200000077
:105e5800a20be0000b000000e00b090000000000ae
:105e68000200de000b000000de0b0600020100004d
:105e78000000000000000000000006000202000010
:105e880000000000de0b000006000000800000009b
:105e9800000b0000a00000008200000001000000cc
:105ea8000000000000000a000000000000000000e0
:105eb800006400000000000000000000e80300008b
:105ec8000000000000001000270000000000000093
:105ed80000a08600010000000000000040420f0002
:105ee80000000000000080009698000000000000fc
:105ef8000000e100f50500000000000000ca9a005b
:105f08003b00000000000000e40b54000200000009
:105f18000000e80076481700000000000010a50007
:105f2800d4e8000000000000a0724e00180900002c
:105f3800000040007a10f3005a0000000080c600fc
:105f4800a47e8d000300000000c16f00f2862300cc
:105f5800000000008a5d78004563010000006400cd
:105f6800a7b3b600e00d000000e889000423c700cd
:105f78008a000000c60b0000180000008200000024
:105f8800286e75006c6c2900003031003233340003
:105f98003536370038396100626364006566000091
:045fa80000000000f5
:020000040000fa
:105fac000000fa0000102000203a880002f80700d8
:105fbc00a0c0290050f3070070c12900801f780091
:105fcc0057f307008f87e9008202200081ad200083
:105fdc00809b20007efc070080ad2000801f780095
:105fec00b0c22900801f78004df30700e4875700ea
:105ffc0060c32900801f780049f307008f87e900f0
:10600c0050c52900801f780045f307008f87e900f1
:10601c008202200081ad2000809b20006cfc0700d8
:10602c0080ad2000801f780090c52900801f78006b
:0c603c003bf30700e4875700f1ff37003a
:020000040000fa
:086048000040da000000fe0038
:00000001FF
