:020000040000fa
:080000001011040000000000d3
:020000040000fa
:102220000fc820000eff27000e01880000000000ec
:102230000c00070040ec2200010020000f00070006
:10224000000020000000e000020032000000020058
:1022500000000000582e0200000000000040da00dc
:102260000000fe00600820000000e00002003200d4
:10227000002020009001880000000600a1028800d4
:10228000800078000000eb001a003700e280400078
:1022900054a0b4009101ba00e280400054a0b40000
:1022a0009102ba00e280400054a0b4000002eb00aa
:1022b000472bde00f507b200a6018800602ce10084
:1022c00008003a000049eb000201e8000200390072
:1022d0003420ec0002f0a0008301e900f9ff3e0089
:1022e000040037006128e100010032000082eb00a9
:1022f000040007001101ba000200e000e3ff3a0009
:102300000000060004d0a300e20f49001c003900c1
:10231000810278003549ba000201e8000200390064
:102320003420ec0002f0a0008301e9000f0032002d
:102330002549ba000201e800020039003420ec000f
:1023400002f0a0008301e900080032000400e00070
:102350000600320015c9ba000201e8000200390087
:102360003420ec0002f0a0008301e9008180e80045
:1023700054a0b4000300e000e2ff3a0000000600b1
:102380009102ba00055978008301e900f7ff320095
:10239000c82ade00055978008301e900f3ff320006
:1023a0000400e000f1ff320011d9ba00eeff37005f
:1023b000d828040000000000942804000000000059
:1023c0000029040000000000ac230400000000000d
:1023d0008223040000000000182404000000000014
:1023e000ea23040000000000f4ff2f002c01370056
:1023f000889fbe008a9fbe008c1f780043010700a3
:102400004a01330003866c006450e100240032006e
:102410006420e100270032006150e1002200320018
:102420006120e100210032008b854200eb07b10002
:102430000134b800003ab8000804420089844a0018
:10244000013ab8000030b8008880400009014a0015
:102450000400330000004000818048000201490070
:102460008b05e900c909dd0083017000010032001d
:1024700013002000c814de004814dd004709de0008
:102480001200b200c808de0008847000370107009f
:1024900001f0a1000cf0a70001f0a0002c01370012
:1024a0006120e1002e0132000801be000200be00e2
:1024b000f7ff37006150e100fcff3a0028013700c8
:1024c0000001be004f0107000470a70003f0a10047
:1024d00003f8a30013003a006509b10010003200b0
:1024e000090035006928e1000200350001002800dc
:1024f0000000050000004000818048008502e900de
:10250000fcff3a0000000600f88f4200050035008d
:102510008100d1000080d3008502e800fcff3a0072
:10252000000006008000eb0000000500889fbe0050
:102530008a9fbe00010578000100e000040035001c
:1025400008003c000000e0002000320005003700d9
:1025500060001000e080180002003b0001f02c0039
:102560001a0037000004be006011b8006b0920009b
:102570000982cf00020039000882cf000441b00078
:10258000694252000e00320008003b008281710057
:10259000610164008904d1000884d3008b05e80040
:1025a0000442e800f9ff3a0005003700080444003f
:1025b00089844c008b05e9000442e900fbff3a00e6
:1025c000ea0007000af0a70001f0a0004f05be00d6
:1025d0004f04be000000060003f0a200889fbe006a
:1025e0008a9fbe008c1f7800c8000700cf00330010
:1025f0006450e1004f0032006420e10052003200dc
:1026000003826c0007003b000905d0000306d000e0
:10261000820f54000c065d000200390002003200f7
:1026200089017800030678008582550004003d008a
:102630000003fd008103fd008502ea008b85420056
:10264000840f720002003b0060001000e080180060
:102650006011b8000005eb007a28e1000a0039009b
:1026600006007800c75ddd00f707b20087807500bf
:102670002d003700828171000a0178006105600039
:102680008180d1000080d3008502e900f9ff3b0082
:10269000060440008784480002003b0060041400e8
:1026a000e0841c000988a300070032008a817100c1
:1026b00082817100610164008904d1000884d30023
:1026c0008b05e800170037000978a30013003a00d3
:1026d0000b00e000130034008b05e90008044400ff
:1026e00089844c000a4474000978a3000d003a0064
:1026f0000b00e000070034008b05e90008044400eb
:1027000089844c0001003a000b0020000978a300e6
:10271000f7ff32000001eb000200370082817100f8
:102720000a017800910007000cf0a70001f0a0005a
:10273000870037006420e10002003a00838f6c00bc
:10274000870033000801be000200be008000370091
:10275000889fbe008a9fbe008c1f78006b00070018
:102760007200330003866c006450e1002e003200da
:102770006420e100330032006150e1002f0032009c
:102780006120e1003100320085855500eb07b00083
:102790000900200008042000050037000804440058
:1027a00089844c000a0031000603430087834b00f4
:1027b0000001530081815b00f8ff33000203be007b
:1027c0000800a0000804440089844c00f6ff39008a
:1027d000c639dd00830173000100320013002000c0
:1027e0008904d1000884d3000998a30005003200b1
:1027f0000800a7000300a0008904d1000884d300ca
:102800008b05e8008904d1000884d3000001eb00a7
:102810000281d2005500070001f0a1000cf0a700d2
:1028200001f0a0004a0037006420e1004c003200b3
:102830000801be000200be00f7ff37006120e10082
:10284000470032006000b800f3ff370000002000ae
:1028500001f82700f0ff37006022b80006022000d0
:102860000000d0008180d2000482d2008582d20094
:102870000000a0000202520083825a0003003100cf
:102880000202420083824a000000a1000603e90020
:10289000f3ff3a000000060014002000000037009b
:1028a000889fbe008a9fbe00841f78001700070023
:1028b0004f00780011003300f0ff2f00838f6c0071
:1028c00006003b00040565000a00a7000800370069
:1028d00009f0a6001000200008003700820f540005
:1028e000838f5c00030039001000200001003e00cf
:1028f0000000200009f0a7000000ea004f05be001c
:102900004f04be000000e000000006000004be000e
:102910003c0007000003be000405be000200be002c
:1029200038000700844f7500000006000200be005a
:102930006450e100050036006420e100020036002a
:102940000968a30001003a000800be000160a00071
:102950004f0678004f05be004f04be000000060081
:10296000f0ff2f00f1ff2700f9ff37008100200062
:10297000618055000b003d000b00200061fe2f0020
:102980000100e1001d0034008281710061016400da
:102990008904d1000884d3000000e800faff3a005f
:1029a00071002000610064000300700002006000fc
:1029b0000900320061044400e0844c000988a5004d
:1029c000050032008b05e8006808e10002003a00cb
:1029d0008904d1000884d300f20f20000258e100de
:1029e00005003d00c75ddd00f907b2008980750074
:1029f00008007800000006000bf827008b00780024
:102a000000000500c70ade00f107b200f50fb200b2
:102a100008003200e1cf4200020032000170a00045
:102a200024000500810f7000010032000408050039
:102a300044000500810f700002003a0014000500f8
:102a40008502e9000000400081c04800fcff3b0017
:082a50000170a0002400050044
:020000040000fa
:020000040002f8
:04aff400031c00003a
:020000040000fa
:020000040002f8
:04aff8000f890000bd
:020000040000fa
:020000040002f8
:04affc007f3e000094
:020000040000fa
:102000001011040000000000f62e04000000000083
:10201000f62e040000000000f62e04000000000070
:10202000f62e040000000000f62e04000000000060
:10203000f62e040000000000f62e04000000000050
:10204000f62e040000000000a41e040000000000a2
:10205000f62e040000000000f62e04000000000030
:10206000ca1e040000000000f01e04000000000072
:10207000f62e040000000000f62e04000000000010
:10208000f62e040000000000f62e04000000000000
:10209000f62e040000000000f62e040000000000f0
:1020a000f62e040000000000f62e040000000000e0
:1020b000f62e040000000000f62e040000000000d0
:1020c000f62e040000000000f62e040000000000c0
:1020d000f62e040000000000f62e040000000000b0
:1020e000161f0400000000003c1f04000000000058
:1020f000f62e040000000000f62e04000000000090
:10210000f62e040000000000f62e0400000000007f
:10211000f62e040000000000f62e0400000000006f
:10212000f62e040000000000f62e0400000000005f
:10213000f62e040000000000f62e0400000000004f
:10214000f62e040000000000f62e0400000000003f
:10215000f62e040000000000f62e0400000000002f
:10216000f62e040000000000f62e0400000000001f
:10217000f62e040000000000f62e0400000000000f
:10218000f62e040000000000f62e040000000000ff
:10219000f62e040000000000f62e040000000000ef
:1021a000f62e040000000000f62e040000000000df
:1021b000f62e040000000000f62e040000000000cf
:1021c000f62e040000000000f62e040000000000bf
:1021d000f62e040000000000f62e040000000000af
:1021e000f62e040000000000f62e0400000000009f
:1021f000f62e040000000000f62e0400000000008f
:10220000f62e040000000000f62e0400000000007e
:10221000f62e040000000000f62e0400000000006e
:020000040000fa
:1000080004100000081000000c1000001010000080
:10001800141000000c1100000c1100000c1100005d
:10002800181000001c100000201000002410000010
:100038000c110000281000002c10000030100000e7
:1000480034100000381000003c1000004010000080
:1000580044100000481000000c1100000c110000b2
:100068004c10000050100000541000005810000000
:100078005c1000000c11000060100000641000000b
:100088000c110000681000006c10000070100000d7
:1000980074100000781000007c1000008010000030
:1000a80084100000881000000c1100000c110000e2
:1000b8000c1100008c10000090100000941000003b
:1000c800981000009c100000a0100000a410000070
:1000d800a8100000ac1000000c1100000c1100006a
:1000e8000c110000b0100000b41000000c1100004a
:1000f8000c110000b8100000bc1000000c1100002a
:100108000c1100000c1100000c1100000c11000073
:100118000c1100000c110000c01000000c110000b0
:100128000c110000c4100000c8100000cc10000022
:100138000c1100000c1100000c1100000c11000043
:10014800d01000000c1100000c1100000c11000070
:100158000c110000d41000000c1100000c1100005c
:100168000c110000d8100000dc100000e0100000a6
:10017800e4100000e8100000ec100000f01000008f
:10018800f4100000f8100000fc100000001100003e
:1001980004110000081100000c1100000c110000ef
:1001a8000c1100000c1100000c1100000c110000d3
:1001b8000c1100000c1100000c1100000c110000c3
:1001c8000c1100000c1100000c1100000c110000b3
:1001d8000c1100000c1100000c1100000c110000a3
:1001e8000c1100000c1100000c1100000c11000093
:0801f8000c1100000c110000c5
:020000040000fa
:102a58001201000000020000000000000040000019
:102a6800666600000300000000000000010200008c
:102a7800000100000902000012000000010100002e
:102a880000a000003209000004000000000000005f
:102a9800ff000000ff00000004030000090400001c
:102aa8001a0300004f0000006c00000069000000dd
:102ab8006e00000020000000430000006f000000ce
:102ac8006c0000006c00000065000000670000005a
:102ad8006500000044030000450000006c00000091
:102ae8006500000063000000610000006e00000047
:102af80069000000730000006d0000007300000012
:102b0800200000004d000000690000006e00000079
:102b18006900000070000000720000006f000000f3
:102b28006a000000650000006300000074000000f7
:102b380020000000320000002000000046000000d5
:102b480069000000720000006d00000077000000be
:0c2b580061000000720000006500000039
:020000040000fa
:102b64000400fa009424a8000000eb00b0248800bc
:102b7400f00f2000702488009424a900a04a2000ab
:102b8400100798000040eb00004f78000800370061
:102b94001e80fb0000004000800078001e009000b2
:102ba400808040000000eb00800878001e4fe800a1
:102bb400f0c0b3009e4f1000f5ff3600d000200097
:102bc4005025880000c4b30000ecb700a0a5200085
:102bd4001060880080c8b30001ecb700a0a92000f1
:102be4003060880080c0b30005ecb7000000eb0043
:102bf400302588000000eb004025880000c020003c
:102c04004800de00c02488008644a80086e4a800aa
:102c14008804a80094a4a9000040eb00f3eab700dc
:102c24000040eb00f6eab70010c0b300f4eab700c6
:102c340000c0eb00e6eab70000c0eb00e7eab7002b
:102c440094c4bf000044b2000004e000fcff3a005a
:102c54000080fa00000006000800fa008ac4bf00e1
:102c6400624060000004e00005003200f00f200024
:102c74007024880020002000502488009000370031
:102c84008ac4bf00644060000004e0000300320016
:102c94004000200050248800890037008ac4bf0007
:102ca400704060000004e0000300320000012000d6
:102cb40050248800820037008ac4bf000042b2005a
:102cc4000004e000030032000002200050248800c9
:102cd4007b0037008ac4bf0001c8b3000140600014
:102ce4000004e000030032000008200050248800a3
:102cf400730037008ac4bf00614060000004e00034
:102d0400340032000040eb00f3eab700080037005b
:102d14008000200050248800000000000000000013
:102d2400000000000000000000000000000000009f
:102d34008ac4bf00684060000004e000f4ff3a0069
:102d4400a04a2000100798000040eb00004f7800d4
:102d5400080037001e80fb0000004000800078005f
:102d64001e009000808040000000eb008008780086
:102d74001e4fe800f0c0b3009e4f1000f5ff360070
:102d840000c4b30000ecb700a0a5200010608800c8
:102d940080c8b30001ecb700a0a92000306088000f
:102da40080c0b30005ecb7000000eb00b02488003d
:102db400f00f200050248800d00020005025880007
:102dc40010c0b300f6eab70010c0b300f4eab700cd
:102dd4003b0037008ac4bf00684060000004e00084
:102de40037003200902480004300de004200dd0002
:102df4008000780000c02000008040002007980078
:102e04002e00900010409000dbeab7002e009000e6
:102e140010407800daeab7002e009000100090000d
:102e2400e056880090248000f5eab7008000200076
:102e3400502488000040eb00f2eab700dbcabf0070
:102e44008080fb00c0032000808060003107980070
:102e540040022000be009000808f50000a00320023
:102e640040032000be009000808f50000400320018
:102e74003e009000e40f50000500320005003700ca
:102e84001100070003003700ff02070001003700ac
:102e940032030700f2cabf000080fb00610060003b
:102ea4000004e0000600320000c4b30000ecb700e8
:102eb40040c8b30005ecb70040c8b30001ecb7004c
:102ec4000080fa00000006000600fa00e0568000c8
:102ed400000f78001e00780090407800e0ad2000dc
:102ee400014878001e0fe8001e007800904078002a
:102ef400e0ad2000114098001e0fe8001e0078008d
:102f040090407800e0ad2000214098001e0fe800ba
:102f14001e00780090407800e0ad20003140980019
:102f24001e0fe8001e00780090407800e0ad2000fd
:102f3400414098001e0fe8001e0078009040780081
:102f4400e0ad2000514098001e0fe8001e007800fc
:102f540090407800e0ad2000614098001e0fe8002a
:102f64001e00780090407800e0ad20007140980089
:102f74001e0fe80000c4b30000ecb70080c0b3002b
:102f840005ecb700e0ad2000104078000004e0003c
:102f940007003500e0ad2000300090000000e000a4
:102fa4000300320081ccb30041479800020037008f
:102fb40080c8b300404798004e40900001ecb70031
:102fc40094a4a90000c0eb00e6eab70000c0eb003f
:102fd400e7eab700e0ad2000104078008080fb00f5
:102fe4000006200080806000110798009e00900079
:102ff4000100e00005003200000420009e00900063
:10300400808f5000030032000400370008000700de
:1030140005003700cb0a070003003700f2cabf00df
:103024000004a000f2eab7000080fa0000000600e5
:103034002800fa00e0ad2000104090000080fb0062
:10304400301798003e109000e60f50009d013200aa
:10305400be109000e68f500011003c003e1190001d
:10306400e10f5100d60032003e109000e10f5000f5
:1030740004003c00be1090000100e0001900320082
:103084007c0237003e119000e30f5100cc00320067
:103094003e109000e50f50006e01320075023700bb
:1030a400be109000e98f50000f0232003e119000d4
:1030b400e90f510004003c003e109000e80f50005e
:1030c400010232006b023700be109000ea8f5000fc
:1030d4002f0232003e119000eb0f510045023200e6
:1030e40064023700e0ad2000104078000080fb004f
:1030f4007f006000201798002e109000e10f500010
:1031040013003200ae109000e28f50003200320003
:103114002e1190000200e00001003200a4003700ec
:1031240031608000f4cabf008048780030608000bd
:103134008000e8000040eb008048780020c0b30025
:1031440004ecb70080ccb30005ecb7004c023700a8
:10315400f6cabf000080fb00101798001e109000f4
:10316400e20f5000040032009e109000e38f5000e4
:103174000500320042023700f2cabf000004a0007a
:10318400f2eab7003e023700e0ad20004040900074
:103194000004e0000c003a00316080000040eb00c5
:1031a40080487800306080008000e8000040eb0038
:1031b4008048780020c0b30004ecb70080ccb30092
:1031c40005ecb7002e023700f2cabf000004a000cd
:1031d400f2eab7002a023700f6cabf000080fb00fb
:1031e400001798000e119000e20f51000400320005
:1031f4000e109000e30f50002800320068003700e2
:10320400e0ad2000404090000080fb006f006000b3
:103214000000e0001d003a0031608000710f98004a
:10322400e0ad2000404090000004e00006003d00b6
:1032340005ccbf000080fb00640060004280de001b
:10324400405f98000500370001ccbf000080fb0000
:10325400640060004280de00405f98004e58900099
:103264007e09900000497800306080008000e8000a
:103274000040eb008048780020c0b30004ecb700a5
:1032840080ccb30005ecb700fd013700f2cabf00e3
:103294000004a000f2eab700f9013700a04a2000b8
:1032a40010079800e0ad2000404090006f4f600090
:1032b4001e80fb0000004000500f9800e0ad20008d
:1032c400404090008000eb00410f98000004e000b3
:1032d40002003d0012002000420f9800de0890001a
:1032e4004e099000028070004200dd0080007800ea
:1032f40000c0200000804000200798001e80fb00d2
:1033040000004000800078001e0090000080400013
:1033140010007800300f9800e0ad2000404090008d
:103324000004e00003003d0040002000200f98004e
:103334000200370081002000210f98003e09900010
:10334400ae089000010061000000e00010003200af
:10335400316080002e009000104090000080fb003f
:10336400640060004280de008048780030608000a5
:103374008000e8000040eb008048780020c0b300e3
:1033840004ecb70080ccb30005ecb700bc013700f7
:10339400f2cabf000004a000f2eab700b801370087
:1033a400f2cabf000004a000f2eab700b40137007b
:1033b400f2cabf000004a000f2eab700b00137006f
:1033c400e0ad2000104078000080fb007f0060002a
:1033d400100f98001e0990000200e0000400320063
:1033e4001e089000e20f50001c00320095003700c8
:1033f400e0ad2000204090000080fb00e10f500071
:103404000100320011003700e0ad200010409000b0
:10341400e14f500005003a00f4cabf00e1cfb30009
:1034240001406000f4eab70003003700f4cabf00ab
:103434000004a000f4eab7000040eb0004ecb7007d
:1034440080ccb30005ecb7008d013700f2cabf0091
:103454000004a000f2eab70089013700f6cabf00f1
:103464000080fb00000f98008e089000e28f50004f
:10347400040032000e099000e30f510010003200e6
:103484006c003700e0ad2000404090000080fb005d
:103494006f0060000000e00005003a000040eb000f
:1034a40004ecb70080ccb30005ecb700740137001e
:1034b400f2cabf000004a000f2eab70070013700ae
:1034c400a04a200010079800e0ad20004040900082
:1034d4006f4f60001e04e0004c0032001e80fb00b1
:1034e4000000400070079800e0ad200040409000cc
:1034f4008000eb00610798000004e00002003d003a
:103504001200200062079800fe0090006e019000f7
:10351400028070004200dd008000780000c02000be
:103524000080400020079800e0ad2000404090005b
:103534000004e0001b003d001e80fb000000400072
:10354400800078001e009000008040001000780089
:103554004200de00610060000004e0000d00320063
:10356400e0ad200010409000e14f500003003a000d
:103574000040eb00304f98000200370041c8b30010
:10358400314f98002e0090003e4990001240980060
:103594001e003700f2cabf000004a000f2eab70020
:1035a4001a0037001e80fb000000400080007800f5
:1035b4001e00900000804000100078004300de00f0
:1035c400610060000004e0000d003200e0ad200066
:1035d40010409000e14f500003003a0080c8b3004f
:1035e400204f98000200370041c8b300214f9800d3
:1035f4002e0090002e4990001240980003003700de
:10360400f2cabf000004a000f2eab700f2cabf0089
:103614000080fb00610060000000e00018013a0037
:103624000040eb0004ecb70080ccb30005ecb7001d
:1036340013013700f2cabf000004a000f2eab70089
:103644000f013700f2cabf000004a000f2eab7007d
:103654000b013700e0ad2000204090000004e000a2
:1036640004003d00f2cabf000004a000f2eab70063
:1036740003013700e0ad200010407800e6eab7000f
:10368400e0ad200010409000e7eab700e0ad200074
:103694001000900040578800e0ad2000200090000a
:1036a40050578800e0ad200030009000605788003b
:1036b4000040eb0004ecb70080ccb30005ecb7008d
:1036c400ef003700e0ad200010407800e6eab700d4
:1036d400e0ad200010409000e7eab700e0ad200024
:1036e4001000900040578800e0ad200020009000ba
:1036f40050578800e0ad20003000900060578800eb
:10370400e0ad2000304090000080fb0040079800ae
:103714004e009000e20f500017003200ce009000df
:10372400e38f5000370032004e019000e10f51004a
:103734000100320060003700c05229007057880031
:1037440070578000104078000080fb00805788008c
:10375400e0ad2000b000900080578000808f5000c2
:1037640003003100e0ad2000300090008057880055
:103774001b010700c2003700e0ad2000204090008c
:103784000080fb000000e00001003200030037006d
:10379400e05329007057880003003700f2cabf00c5
:1037a4000004a000f2eab700f2cabf000080fb00e8
:1037b400610060000000e000b1003a007057800032
:1037c4000080e80010407800f0eab70070578000ed
:1037d4006300400010407800f1eab700e0ad20003b
:1037e400b000900080578000808f500003003100ab
:1037f400e0ad20003000900080578800f8000700fa
:103804009f003700e0ad2000204090000080fb00c6
:10381400300798003e009000e10f50000a0032008b
:10382400be009000e28f50000a0032003e0190007a
:103834000200e000010032000900370000552900b1
:1038440070578800090037004055290070578800d8
:1038540006003700e056290070578800030037003f
:10386400f2cabf000004a000f2eab700f2cabf0027
:103874000080fb00610060000000e00080003a006e
:1038840070578000104078000080fb00805788004b
:10389400e0ad2000b000900080578000808f500081
:1038a40003003100e0ad2000300090008057880014
:1038b400cb00070072003700f2cabf000004a0006a
:1038c400f2eab7006e00370031608000f3cabf002f
:1038d4008048780010c0b30004ecb70080ccb3007b
:1038e40005ecb70066003700e0ad200020409000f2
:1038f400e14f500022003e00a04a2000100798002b
:1039040010c0b300004f7800080037001e80fb0091
:1039140000004000800078001e009000808040007d
:103924000000eb00800878001e4fe800f0c0b300f0
:103934009e4f1000f5ff3600e0ad200020409000bf
:10394400f3eab700f3cabf000080fb000000e00008
:10395400010032000300370020c0b300f6eab700cc
:103964000200370030c0b300f6eab7000040eb00b5
:1039740004ecb70080ccb30005ecb700400037007e
:10398400f2cabf000004a000f2eab7003c0037000e
:10399400f6cabf000080fb00e30f500001003200b4
:1039a40010003700e0ad2000404090000004e0002b
:1039b40008003a00316080000040eb008048780045
:1039c40010c0b30004ecb70080ccb30005ecb70022
:1039d4002b003700f2cabf000004a000f2eab700cf
:1039e40027003700f2cabf000004a000f2eab700c3
:1039f40023003700f6cabf000080fb00e30f50002d
:103a04000100320017003700e0ad20004040900074
:103a14000004e0000f003a00e0ad200020409000d8
:103a24000080fb000000e0000100320005003700c8
:103a34000040eb0004ecb70080ccb30005ecb70009
:103a44000f003700f2cabf000004a000f2eab7007a
:103a54000b003700f2cabf000004a000f2eab7006e
:103a640007003700f2cabf000004a000f2eab70062
:103a740003003700f2cabf000004a000f2eab70056
:103a84000080fa00000006000400fa00f5cabf0036
:103a94008080fb00000f2000008060000000e00038
:103aa400010032002b003700e6cabf008080fb0013
:103ab40000062000808060001107980000022000aa
:103ac4009e009000808f50002200320000042000ed
:103ad4009e009000808f50001d0032001e00900058
:103ae4000000e000010032001a003700e7cabf00fe
:103af4000080fb00000f78009e007800e58f5000e6
:103b0400040032001e007800e60f50000e00320060
:103b140010003700e8cabf000080fb00b024880012
:103b2400b02480000000e0000100320003003700f0
:103b340010c0b300f6eab7000600370020c0b30097
:103b4400f6eab7000300370025000700010037003c
:103b54004a0807000080fa00000006000200fa008c
:103b6400f5cabf008080fb00000f200000806000c9
:103b74000000e0000100320017003700e6cabf0071
:103b84008080fb000006200080806000010f780028
:103b9400000220009e007800808f50000600320052
:103ba400000420009e007800808f50000100320045
:103bb400010037003708070000c4b30000ecb70069
:103bc40080c8b30001ecb7000040eb0004ecb70080
:103bd40080ccb30005ecb7000080fa0000000600ba
:103be4000200fa0081578000f0032000808f50000b
:103bf40009003e0080578000104798000000eb0049
:103c04008057880000c0eb00e6eab70000c0eb0074
:103c1400e7eab7000600370000c4b3001047980075
:103c24008157800000fc2f000080400080578800ee
:103c34000040eb00004f780009003700316080003d
:103c44001e80fb0000814000715780001140780005
:103c5400004978000100e800705788001e4fe80012
:103c64001e4090009e4f1000f4ff39001e4090004b
:103c740004ecb70051c020009140780000c4b300a8
:103c840000c0680002c4b3008240600080c8b30072
:103c940000c0700005ecb7000080fa0000000600c8
:103ca4000200fa00000f78001e00780013020700db
:103cb4001e007800100890000000e00005003200ab
:103cc4001e007800900890001e007800010001009a
:103cd4001a0037001e007800200890000000e00061
:103ce400140032001e007800000890000000e0007c
:103cf4000a0032001e007800a00890001e00780020
:103d0400010001001e007800000890008000e90016
:103d14001e00780001089800080037001e00780093
:103d24001e0207009e0078000000eb00a008980027
:103d3400020037001e007800180207000080fa0015
:103d4400000006003600f800809fbe00829fbe007f
:103d5400849fbe00869fbe003200f8000020200031
:103d6400900188000000fa0080af2000ccff07001b
:103d74000080fa003200f9004f03be004f02be007b
:103d84004f01be004f00be003600f900004006009f
:103d94003600f800809fbe00829fbe00849fbe0054
:103da400869fbe003200f8000020200090018800a9
:103db4000000fa00e0b02000b9ff07000080fa001c
:103dc4003200f9004f03be004f02be004f01be0097
:103dd4004f00be003600f900004006003600f8002f
:103de400809fbe00829fbe00849fbe00869fbe004f
:103df4003200f80000202000900188000000fa0042
:103e040040b22000a6ff07000080fa003200f9004b
:103e14004f03be004f02be004f01be004f00be0064
:103e24003600f900004006003600f800809fbe000e
:103e3400829fbe00849fbe00869fbe003200f800b1
:103e440000202000900188000000fa00a0b32000a8
:103e540093ff07000080fa003200f9004f03be0010
:103e64004f02be004f01be004f00be003600f900f5
:103e7400004006003600f800809fbe00829fbe000e
:103e8400849fbe00869fbe003200f8000020200000
:103e9400900188000000fa0000b5200080ff0700b0
:103ea4000080fa003200f9004f03be004f02be004a
:103eb4004f01be004f00be003600f900004006006e
:103ec4000000fa00889fbe0041092000420820003b
:103ed400031020002810200049102000b00020000a
:103ee400801f78004700200036c0b30081027800ac
:103ef40002027800080178008900780080af200071
:103f0400440007008f87e90041092000420820008f
:103f140063102000c810200009112000c0002000f8
:103f2400801f78008003eb0076c0b3008102780024
:103f3400020278000801780089007800e0b02000cf
:103f4400340007008f87e90041092000420820005f
:103f5400a3102000e810200029112000d000200028
:103f6400801f78001700200086c0b300810278000b
:103f740002027800080178008900780040b220002d
:103f8400240007008f87e9006109200062082000ef
:103f940043112000a8112000e9112000e0002000b6
:103fa400801f780027002000b6c0b300810278008b
:103fb400020278000801780089007800a0b320008c
:103fc400140007008f87e9006109200062082000bf
:103fd40083112000c811200009122000f0002000e5
:103fe400801f780037002000c6c0b300810278002b
:103ff40002027800080178008900780000b52000ea
:10400400040007008f87e9004f04be000080fa0017
:10401400000006001000fa00000f78001107980055
:104024002207980033079800440798005507980022
:10403400464f9800770798001e0078009e00900075
:10404400010878001e007800ae009000110098006e
:104054001e007800be009000210098001e00780029
:10406400ce009000310098001e007800de00900021
:10407400410098001e007800ce4890002148980026
:104084001e007800fe009000610098001e00780079
:10409400ceb89700710098009e0078000000eb00f5
:1040a400800898009e0078000000eb0090089800bb
:1040b4009e0078000000eb00a00898000080fa0041
:1040c400000006000600fa00881f7800000f780040
:1040d4001207980023079800d27b230063f823007b
:1040e4001e009000ae009000bef807000000e00043
:1040f4005b003c00d27b230063e823001e00900099
:10410400ae009000b7f807000000e00001003c009a
:10411400110037001e007800d80007001e00780048
:104124009000780000032000800878001e007800ca
:10413400100490001e009000ae0090000240220087
:1041440043772400a9f80700dcf807000000e90021
:10415400000c780042003700d27b230063d0230098
:104164001e009000ae0090009ef807000000e000e2
:1041740001003c00110037001e007800bf0007005a
:104184001e0078009000780000022000800878006b
:104194001e007800100490001e009000ae009000f5
:1041a400024022004387240090f80700c3f8070068
:1041b4000000e900000c780029003700d27b2300be
:1041c40063b823001e009000ae00900085f807003d
:1041d4000000e00001003c00110037001e007800e0
:1041e400a60007001e00780090007800000120005f
:1041f400800878001e007800100490001e009000d3
:10420400ae00900002402200439f240077f807008c
:10421400aaf807000000e900000c7800100037003d
:104224001e007800950007001e00780090007800ba
:104234000000eb00800878001e0078001004900055
:104244001e009000ae0090000240220043b72400fc
:1042540066f8070099f807000000e900000c7800f0
:104264004f0478000080fa00000006000c00fa00f9
:10427400881f7800100798001e0090001000780036
:104284009000780000032000008060004400de00fd
:10429400000f78001e007800c200dd0060b6200028
:1042a400008040001000be004007980051079800ad
:1042b4001e00900010009000100478006140b900c6
:1042c40099f8070020079800310798000800e000db
:1042d40007003d0002002000037824002e00900017
:1042e400be009000bcf80700200798003107980032
:1042f4002e009000be0090000200200003f823006e
:10430400b5f807000001be004e009000de009000ea
:1043140036f807004f0478000080fa000000060019
:104324000600fa00000f780012079800230798008f
:104334001e019000ae0190000000200001f823004f
:1043440002f907000001be001e0078005dff0700af
:104354000080fa00000006000200fa00000f780056
:104364001e007800c1ff07000001be00000020000d
:1043740001f82300f5f807000080fa0000000600a9
:104384000c00fa00881f7800100798001e009000a7
:104394001000780090007800000320000080600086
:1043a4004400de00000f78001e007800c200dd002b
:1043b40060b62000008040001000be004007980056
:1043c400510798001e00900010009000100478001f
:1043d4006140b90054f8070020079800310798009d
:1043e4000800e00007003d000200200003782400dc
:1043f4002e009000be00900077f807002007980078
:10440400310798002e009000be00900002002000aa
:1044140003f8230070f807000001be004e0090006e
:10442400de009000f1f707004f0478000080fa00e6
:10443400000006000200fa00000f78001e00780059
:104444002e0007001e007800a00090000000eb0082
:10445400800878001e007800100178001e007800a3
:1044640010007800900078000000280000807000a0
:10447400000978000080fa00000006000200fa003b
:10448400000f78001e007800100178001e007800ec
:104494001000780090007800f0ff27000080600092
:1044a400000978000080fa00000006000400fa0009
:1044b400000f78001e007800300090001001780092
:1044c4001e007800204890008080fb00100020002f
:1044d4000100dd0000006100100798001e0090003c
:1044e4000000e000020032001000200010079800d5
:1044f4001e0090000080fa00000006000200fa008e
:10450400000f78001e007800b00190001e007800b3
:1045140030009000100178001e00780020489000c0
:104524008080fb00100020000100dd000080ea0014
:1045340000006100800978000080fa000000060095
:104544000200fa00000f78001e007800200090009e
:10455400100078000080fa00000006000200fa0053
:10456400000f78001e007800c00190001e00780043
:1045740040009000100178001e0078002048900050
:104584008080fb00100020000100dd0000007100ad
:10459400800978000080fa00000006000200fa009a
:1045a400000f78001e007800c00190001e00780003
:1045b40040009000100178001e0078002048900010
:1045c4008080fb00100020000100dd000080ea0074
:1045d40000006100800978000080fa0000000600f5
:1045e4000800fa00000f78001207980023079800cb
:1045f400310798001e007800e8ff07001e019000b4
:10460400ae0190001e007800aefe07009e00780008
:104614000000eb00800898001e007800be009000a7
:10462400110898009e0078000000eb00a008980094
:104634001e007800c9ff07001e0078007dff0700f8
:104644000080fa00000006000a00fa00000f78005b
:104654001207980023079800310798004407980030
:104664001e007800cdff07001e019000ae019000ef
:104674001e00780093fe07001e007800be00900024
:10468400010898009e0078000000eb009008980054
:104694001e007800ce009000210898001e007800cb
:1046a400aeff07001e00780062ff07000080fa00da
:1046b400000006000200fa00000f78001e007800d7
:1046c400b6ff07001e0078008cff07001e0078006c
:1046d4006aff07009e0078000000eb008008980045
:1046e4009e0078000000eb00900898009e0078007f
:1046f4000000eb00a00898000080fa00000006000b
:104704000800fa00300798003e009000000890006e
:10471400000f78000000eb00100798001e007800de
:104724003000900010007800200798001e029000ce
:10473400ae0290001e007800200090001000780067
:104744006101b8000400be0042f807000080fa00ce
:10475400000006000a00fa00889fbe003007980097
:10476400410798003e00900000089000000f780078
:104774004e0090006104b8001e00780020009000f4
:10478400100078006103b800880078000600780003
:10479400000ab80007c0b900050178000001410013
:1047a40009b0b900000141008202780014079800a2
:1047b400250798001e007800b00090002e0090009d
:1047c400800878004f04be000080fa000000060054
:1047d4000800fa00300798003e009000000890009e
:1047e400000f78000000eb00100798001e0078000e
:1047f40020009000900078001e0078006000900077
:1048040000805000200798001e029000ae02900025
:104814001e007800700090006101b8000400be0022
:104824000cf807000080fa00000006000a00fa00f5
:10483400889fbe0030079800410798003e00900012
:1048440000089000000f78004e0090006104b8004a
:104854001e007800700090006103b80088007800a2
:1048640006007800000ab80007c0b9000501780006
:104874000001410009b0b900000141008202780042
:1048840014079800250798001e0078002001900066
:104894001e007800e00090002e0090000080400090
:1048a400000978004f04be000080fa0000000600f2
:1048b4000000fa00881f7800801920006119200088
:1048c4004219200027192000081920002601200081
:1048d40080027800010278008201780007017800e4
:1048e40088007800809b20006b000700201a2000bd
:1048f400011a2000e2192000c7192000a81920007d
:1049040036012000800278000102780082017800dc
:104914000701780088007800a09c20005e00070052
:10492400c01a2000a11a2000821a2000671a200051
:10493400481a200046012000800278000102780015
:10494400820178000701780088007800c09d20006b
:1049540051000700601b2000411b2000221b200087
:10496400071b2000e81a200056012000800278006e
:10497400010278008201780007017800880078003d
:10498400e09e200044000700001c2000e11b2000e2
:10499400c21b2000a71b2000881b200066012000ea
:1049a4008002780001027800820178000701780013
:1049b4008800780000a0200037000700a01c200019
:1049c400811c2000621c2000471c2000281c2000a1
:1049d40076012000800278000102780082017800cc
:1049e400070178008800780020a120002a00070031
:1049f400401d2000211d2000021d2000e71c200076
:104a0400c81c200086012000800278000102780082
:104a140082017800070178008800780040a2200015
:104a24001d000700e01d2000c11d2000a21d200064
:104a3400871d2000681d2000960120008002780058
:104a4400010278008201780007017800880078006c
:104a540060a3200010000700801e2000611e2000bb
:104a6400421e2000271e2000081e200036022000bf
:104a74008002780001027800820178000701780042
:104a84008800780080a42000030007004f04780009
:104a94000080fa00000006000e00fa00000f780003
:104aa40011079800220798003307980044079800dc
:104ab40055079800660798001e0078009e00900035
:104ac400010878001e007800ae00900011009800e4
:104ad4001e007800be009000210098001e0078009f
:104ae400ce009000310098001e007800de00900097
:104af400410098009e00780000e82300e000980040
:104b04009e00780000e82300f00098001e00780062
:104b1400ee009000510098009e0078000000eb0029
:104b2400800898000080fa00000006000200fa00e5
:104b3400000f78001e007800900078000000eb0061
:104b4400800878001e007800900090000000eb00c0
:104b5400800878001e007800000890000000e00043
:104b64002f003200113a8000f00b20000081600019
:104b7400610420007005200023742000814978001e
:104b840080497800824978001e007800000890006f
:104b9400f00190001e007800000890007000900062
:104ba400100178001e007800000890002048900052
:104bb4008080fb00f00320000100dd000080ea009b
:104bc4000000610080097800113a80000004200090
:104bd400008170006104200070052000237420000f
:104be4008149780080497800824978001e00780065
:104bf400800890000000eb00800898001e007800f8
:104c040000089000150307001e00780000089000bb
:104c1400820307009e0078000000eb0080089800e3
:104c24000080fa00000006001000fa00889fbe0011
:104c3400200798003107980042079800540798000d
:104c440065079800730798003e009000600090008c
:104c5400e10f4000980032003e00900000089000f0
:104c64000000e00033003a002e009000be009000e7
:104c7400010898003e009000ae01900003089800df
:104c8400113a8000f00b20000081600061042000d4
:104c94007005200023742000814978008049780041
:104ca400824978003e009000f00190003e009000a0
:104cb40070009000100178003e00900020489000a1
:104cc4008080fb00f00320000100dd000080ea008a
:104cd40000006100800978003e009000f00190001f
:104ce4003e00900070009000100178002e009000ab
:104cf400d00090003e009000204890000080fb000f
:104d04000008dd000000710080097800113a80007d
:104d14000004200000817000610420007005200060
:104d24002374200081497800804978008249780002
:104d3400050037003e009000800890002e0090008f
:104d4400808f50005c003a004e0090000000e000ac
:104d54001c0032002e009000900078004e0090005d
:104d6400600090004a00dd006000b3008008780015
:104d74002e00900090009000f00120008008780040
:104d84005e019000ee0190004e00900064fd07006b
:104d94002e009000a00090004e00900010009000a3
:104da40010007800800878002e009000c000900069
:104db4000000eb00800878004e0090009dfd070085
:104dc400210037002e0090009000780060c0210080
:104dd400800878002e00900090009000f0012000e0
:104de4008008780002402200433724005e009000cf
:104df400ee009000a7f607000000e0000100350077
:104e0400050037002e009000a00090000080eb0009
:104e1400800878000c0037002e00900020049000d9
:104e24005e019000ee0190000040220041b7240092
:104e340046f607000200200003f82300e5f507000a
:104e44009ef50700000c78007e0090006104b80015
:104e54002e00900020009000100078006103b8003c
:104e64008800780006007800000ab80007c0b9007e
:104e7400050178000001410009b0b90000014100ba
:104e840082027800048fbe002e009000b0009000d3
:104e94001e009000800878002e009000800890008a
:104ea400c03a2200900898002e00900080089000dc
:104eb40020382200a00898004f04be000080fa00a9
:104ec400000006001400fa00889fbe002007980026
:104ed4003107980042079800540798006507980026
:104ee40076079800070f9800130f98003e00900073
:104ef40060009000e10f4000870032003e00900007
:104f0400000890000000e00033003a002e009000fa
:104f1400be009000010898003e009000ae01900091
:104f240003089800113a8000f00b20000081600013
:104f3400610420007005200023742000814978005a
:104f440080497800824978003e009000f00190008a
:104f54003e00900070009000100178003e00900028
:104f6400204890008080fb00f00320000100dd0059
:104f74000080ea0000006100800978003e00900093
:104f8400f00190003e009000700090001001780045
:104f94002e009000d00090003e0090002048900029
:104fa4000080fb000008dd0000007100800978002b
:104fb400113a800000042000008170006104200088
:104fc400700520002374200081497800804978000e
:104fd40082497800050037003e0090008008900068
:104fe4002e009000808f50004b003a004e0090003d
:104ff4000000e000480032000240220043b72400d1
:105004007e0090008e089000f8f407002bf507004e
:10501400800078002e009000610098007e019000ce
:105024008e0990003eb89700ceb8970069f5070046
:105034000240220043b72400ecf407001ff50700e8
:10504400800078002e009000710098002e009000df
:1050540090007800f0c02100800878002e009000b5
:10506400100190004e009000f00090000008200015
:1050740000807000000978002e009000b0009000bd
:1050840010002000800878001e0890006104b80019
:105094002e009000700090006103b8008800780032
:1050a40006007800000ab80007c0b90005017800be
:1050b4000001410009b0b9000001410082027800fa
:1050c400048fbe002e009000200190002e0090005e
:1050d400e00090001e00900000804000000978006d
:1050e4005e019000ee0190004e009000f5fb070079
:1050f4004e009000cffc07002e0090008008900026
:1051040080412200900898002e00900080089000b2
:10511400a03e2200a00898004f04be000080fa00c0
:10512400000006000400fa00000f78001107980040
:105134001e0090000000e0000d0032001e00780008
:10514400900178001e0078001000780010017800ab
:105154001e007800604090008080fb00100020005a
:105164000100dd0000007100800978000d003700a7
:105174001e007800900178001e007800100078006e
:10518400100178001e007800604090008080fb00d1
:10519400100020000100dd000080ea000000610032
:1051a400800978000080fa00000006000400fa007c
:1051b400000f78001e0078001000780010017800bd
:1051c4001e007800604090008080fb0010002000ea
:1051d4000100dd0000006100100798001e0090002f
:1051e4000000e000020032001000200010079800c8
:1051f4001e0090000080fa00000006000200fa0081
:10520400000f78001e0078004000900040198800cc
:105214002023a80020c3bf00614060000004e00018
:10522400fcff3200001880000080fa000000060035
:105234000200fa00889fbe00406d2000822d2000ed
:10524400a12d2000801f7800470120000043eb00bf
:105254008082eb0054c0b3008001eb00008020008a
:105264002b0107008f87e900806d2000822d20002c
:10527400a12d200068812000801f78009701200064
:1052840086c0b3008082eb0044c0b3008001eb0011
:10529400080078001e0107008f87e900a06c200039
:1052a400822e2000a12e2000c8822000801f7800ba
:1052b400a70020000043eb008082eb0044c0b30051
:1052c4008001eb0008007800110107008f87e900d6
:1052d400006d2000822e2000a12e200028842000b2
:1052e400801f78001701200086c0b3008082eb0085
:1052f40054c0b3008001eb000800780004010700eb
:105304008f87e900c06d2000214e2000822c2000f0
:10531400a82c200089852000801f7800d701200058
:1053240086c0b300f5002000f4c0b300810178000a
:105334008800780009007800f50007008f87e900ed
:10534400006d2000822e2000a12e2000e88620007f
:10535400801f7800070120000043eb008082eb00ef
:1053640034c0b3008001eb0008007800e8000700b7
:105374008f87e900206c2000822d2000a12d2000c1
:1053840048882000801f7800270020000043eb009d
:105394008082eb0084c0b3008001eb000800780039
:1053a400db0007008f87e900c06c2000822d2000fd
:1053b400a12d2000a8892000801f7800c7002000ac
:1053c4000043eb008082eb00b4c0b3008001eb002b
:1053d40008007800ce0007008f87e900406c2000a9
:1053e400822d2000a12d2000088b2000801f780032
:1053f400470020000043eb008082eb0094c0b30020
:105404008001eb0008007800c10007008f87e900e5
:10541400206c2000822d2000a12d2000688c20000b
:10542400801f78003700200086c0b3008082eb0024
:10543400a4c0b3008001eb0008007800b4000700aa
:105444008f87e900a06c2000822d2000a12d200070
:10545400c88d2000801f7800b700200086c0b300ec
:105464008082eb000042eb008001eb000800780032
:10547400a70007008f87e900806d2000822d20009f
:10548400a12d2000288f2000801f78008701200094
:105494000043eb008082eb0014c0b3008001eb00fa
:1054a400080078009a0007008f87e900606d2000eb
:1054b400822d2000a12d200088902000801f7800dc
:1054c4007701200086c0b3008082eb0024c0b300c3
:1054d4008001eb00080078008d0007008f87e90049
:1054e400606d2000822d2000a12d2000e891200075
:1054f400801f7800670120000043eb008082eb00ee
:1055040034c0b3008001eb0008007800800007007d
:105514008f87e900006c2000214e2000822c20009f
:10552400a82c2000801f78008003eb000043eb00d0
:105534008002eb000042eb008101780088007800d3
:1055440040932000720007008f87e900006c200060
:10555400214e2000822c2000a82c2000a994200099
:10556400801f78001700200086c0b30015002000bb
:1055740014c0b30081017800880078000900780025
:10558400630007008f87e900c06c2000214e2000d3
:10559400822c2000a82c200009962000801f78006f
:1055a400d700200086c0b3002500200024c0b3002b
:1055b4008101780088007800090078005400070011
:1055c4008f87e900214e2000822c2000a82c200087
:1055d400699720000000eb00801f78008083eb00b7
:1055e4000043eb003500200034c0b3008101780093
:1055f4008800780009007800450007008f87e900db
:10560400c06d2000214e2000822c2000a82c2000f8
:10561400c9982000801f7800c70120000043eb00d8
:105624004500200044c0b300810178008800780060
:1056340009007800360007008f87e900206d2000fc
:10564400214e2000822c2000a82c2000299a200022
:10565400801f7800270120000043eb005500200044
:1056640054c0b300810178008800780009007800f4
:10567400270007008f87e9000000eb00000f780087
:10568400070037001e0078007600b900800078001b
:105694000080200000804000490007001e0fe80041
:1056a400d00020009e0f1000f6ff36000000eb0033
:1056b400000f7800070037001e0078007600b9005c
:1056c400800078004093200000804000980007008c
:1056d4001e0fe800500020009e0f1000f6ff360059
:1056e400002e2000001988000000eb00101988002b
:1056f40000c42000201988000000eb004019880035
:1057040021e3a8004f04be000080fa000000060058
:105714001000fa00000f7800110798002207980083
:1057240033079800044f980055079800464f980097
:10573400770798001e0078009e009000010878000a
:105744001e007800ae009000110098001e00780042
:10575400be009000210098001e0078008e48900042
:10576400614098001e007800de009000410098001f
:105774001e007800ce48900021489800fe0090005a
:105784001e007800610098001e007800ceb89700d3
:10579400710098009e0078000000eb0080089800db
:1057a4009e0078000000eb00900898009e007800ae
:1057b4000000eb00a00898000080fa00000006003a
:1057c4000200fa00000f78001e007800200090000c
:1057d4000000e0000d0032001e007800a0019000df
:1057e4001e00780020009000100178001e00780050
:1057f400604090008080fb00100020000100dd006c
:105804000080ea0000006100800978001e00780032
:10581400900190001e0078001000900010017800a4
:105824001e007800604090008080fb001000200083
:105834000100dd0000007100800978009e007800fe
:105844000000eb00900898009e007800808d2200f4
:10585400a00898000080fa00000006000200fa0088
:10586400000f78001e007800200090000000e00087
:105874000d0032001e007800a00190001e00780088
:1058840020009000100178001e0078006040900015
:105894008080fb00100020000100dd000080ea0091
:1058a40000006100800978001e00780090017800f3
:1058b4001e00780010007800100178001e007800a7
:1058c400604090008080fb00100020000100dd009b
:1058d4000080ea0000006100800978001e00780062
:1058e400900190001e0078001000900010017800d4
:1058f4001e007800604090008080fb0010002000b3
:105904000100dd000080ea000000610080097800e9
:105914009e00780040892200900898009e0078003c
:10592400808d2200a00898000080fa000000060084
:105934000200fa00000f78001e007800200090009a
:105944000000e0001e0032001e007800900190006c
:105954001e00780010009000100178001e007800ee
:10596400604090008080fb00100020000100dd00fa
:1059740000007100800978001e007800a0019000ea
:105984001e00780020009000100178001e007800ae
:10599400604090008080fb00100020000100dd00ca
:1059a40000007100800978009e0078000000eb0080
:1059b400900898009e00780000902200a0089800ab
:1059c4000080fa00000006000200fa00000f7800d0
:1059d4001e0078009008900040892200808f5000bb
:1059e4000c003a001e007800900178001e00780038
:1059f40010007800100178001e00780060409000cc
:105a04008080fb00100020000100dd000000710018
:105a1400800978000080fa00000006000200fa0005
:105a2400000f78001e007800900890004089220042
:105a3400808f50000d003a001e007800900178001d
:105a44001e00780010007800100178001e00780015
:105a5400604090008080fb00100020000100dd0009
:105a64000080ea0000006100800978000080fa00ec
:105a7400000006000200fa00000f78001e00780003
:105a84009008900040892200808f50000c003a005a
:105a94001e007800900178001e0078001000780045
:105aa400100178001e007800604090008080fb00a8
:105ab400100020000100dd0000006900800978006a
:105ac4000080fa00000006000400fa00000f7800cd
:105ad400110798001e007800100890000000e000f4
:105ae400050032001e007800100990009e0090000e
:105af4001e007800020001000080fa000000060089
:105b04000400fa00000f78001e00780020089000be
:105b14000000e000060032001e007800a00890009b
:105b24001e007800010001001007980002003700f1
:105b34000080eb00100798001e0090000080fa001f
:105b4400000006000400fa00e0ad200010409000c0
:105b54000080fb00100798001e009000e20f500028
:105b6400140032001e009000e30f50002b0032009e
:105b74001e009000e10f5000010032003a0037008f
:105b8400e0ad200090009000c0822000ceff07000e
:105b9400e0ad2000a000900020842000caff070090
:105ba4000040eb0004ecb70080ccb30005ecb70078
:105bb40030003700c0822000d1ff0700000f7800ba
:105bc400316080001e40780080487800306080009a
:105bd4008000e8001e409000804878002084200067
:105be400c7ff0700000f7800306080008080e80065
:105bf4001e4078008048780030608000e300400058
:105c04001e4090008048780040c0b30004ecb70008
:105c140080ccb30005ecb700160037008085200067
:105c240001002800a8ff0700e0b0200001fa0700e7
:105c3400e0b020001dfa07000000e000fcff320085
:105c4400808520008000eb009fff0700e0b020006b
:105c54000afa07000040eb0004ecb70080ccb30064
:105c640005ecb70003003700f2cabf000004a0002f
:105c7400f2eab7000080fa00000006000000fa0013
:105c8400f2cabf000004a000f2eab7000080fa00e4
:105c9400000006000000fa00f2cabf000004a000e1
:105ca400f2eab7000080fa00000006000000fa00e3
:105cb400881f780000102000203a88005cfd07004f
:105cc4007ff80700fafa0700c882200000de2200ed
:105cd40001b12300809fbe000300280076712b00d1
:105ce40017a52300a4702d0035ca230082af20001d
:105cf40088007800809b200072fc0700e48757002e
:105d04002884200000de220001b12300809fbe0011
:105d14000300280076712b0017a52300a4702d0022
:105d240035ca230082af200088007800a09c2000a0
:105d340064fc0700e4875700818520008001eb00a4
:105d440004002400c57124000001eb00c09d200064
:105d5400b5fb0700f226210033a02300e0b02000a9
:105d6400d8f807007ef3070001003700baf30700f4
:105d7400f6cabf00e34f5000fcff3a00b6f3070039
:045d8400feff3700e7
:020000040000fa
:105d8800000c000080000000800000005a0a00009b
:105d98009e00000080000000660b0000100000005c
:105da80082000000bd37860033bd37000635bd00d0
:105db80037863600bd37860037000000f80a000035
:105dc8006e0000008000000000080000b80100001c
:105dd80080000000b8090000a20000008000000058
:045de80000000000b7
:020000040000fa
:085dec000040da000000fe0097
:00000001FF
